{
  "contractName": "Blog",
  "abi": [
    {
      "inputs": [],
      "stateMutability": "nonpayable",
      "type": "constructor"
    },
    {
      "anonymous": false,
      "inputs": [
        {
          "indexed": true,
          "internalType": "uint256",
          "name": "articleId",
          "type": "uint256"
        },
        {
          "indexed": true,
          "internalType": "address",
          "name": "owner",
          "type": "address"
        },
        {
          "indexed": false,
          "internalType": "string",
          "name": "title",
          "type": "string"
        },
        {
          "indexed": false,
          "internalType": "string",
          "name": "content",
          "type": "string"
        },
        {
          "indexed": false,
          "internalType": "uint256",
          "name": "timestamp",
          "type": "uint256"
        }
      ],
      "name": "ArticleCreated",
      "type": "event"
    },
    {
      "anonymous": false,
      "inputs": [
        {
          "indexed": true,
          "internalType": "uint256",
          "name": "articleId",
          "type": "uint256"
        },
        {
          "indexed": true,
          "internalType": "address",
          "name": "owner",
          "type": "address"
        },
        {
          "indexed": false,
          "internalType": "string",
          "name": "newContent",
          "type": "string"
        },
        {
          "indexed": false,
          "internalType": "uint256",
          "name": "timestamp",
          "type": "uint256"
        }
      ],
      "name": "ArticleEdited",
      "type": "event"
    },
    {
      "anonymous": false,
      "inputs": [
        {
          "indexed": true,
          "internalType": "uint256",
          "name": "articleId",
          "type": "uint256"
        },
        {
          "indexed": true,
          "internalType": "address",
          "name": "upvoter",
          "type": "address"
        }
      ],
      "name": "ArticleUpvoted",
      "type": "event"
    },
    {
      "anonymous": false,
      "inputs": [
        {
          "indexed": true,
          "internalType": "uint256",
          "name": "articleId",
          "type": "uint256"
        },
        {
          "indexed": true,
          "internalType": "address",
          "name": "commenter",
          "type": "address"
        },
        {
          "indexed": false,
          "internalType": "string",
          "name": "content",
          "type": "string"
        }
      ],
      "name": "CommentAdded",
      "type": "event"
    },
    {
      "inputs": [],
      "name": "articleCount",
      "outputs": [
        {
          "internalType": "uint256",
          "name": "",
          "type": "uint256"
        }
      ],
      "stateMutability": "view",
      "type": "function",
      "constant": true
    },
    {
      "inputs": [
        {
          "internalType": "uint256",
          "name": "",
          "type": "uint256"
        }
      ],
      "name": "articleExists",
      "outputs": [
        {
          "internalType": "bool",
          "name": "",
          "type": "bool"
        }
      ],
      "stateMutability": "view",
      "type": "function",
      "constant": true
    },
    {
      "inputs": [
        {
          "internalType": "uint256",
          "name": "",
          "type": "uint256"
        }
      ],
      "name": "articles",
      "outputs": [
        {
          "internalType": "string",
          "name": "title",
          "type": "string"
        },
        {
          "internalType": "address",
          "name": "owner",
          "type": "address"
        },
        {
          "internalType": "uint256",
          "name": "upvotes",
          "type": "uint256"
        },
        {
          "internalType": "string",
          "name": "category",
          "type": "string"
        }
      ],
      "stateMutability": "view",
      "type": "function",
      "constant": true
    },
    {
      "inputs": [
        {
          "internalType": "uint256",
          "name": "",
          "type": "uint256"
        },
        {
          "internalType": "address",
          "name": "",
          "type": "address"
        }
      ],
      "name": "hasUpvoted",
      "outputs": [
        {
          "internalType": "bool",
          "name": "",
          "type": "bool"
        }
      ],
      "stateMutability": "view",
      "type": "function",
      "constant": true
    },
    {
      "inputs": [
        {
          "internalType": "string",
          "name": "_title",
          "type": "string"
        },
        {
          "internalType": "string",
          "name": "_content",
          "type": "string"
        },
        {
          "internalType": "string[]",
          "name": "_tags",
          "type": "string[]"
        },
        {
          "internalType": "string",
          "name": "_category",
          "type": "string"
        }
      ],
      "name": "createArticle",
      "outputs": [],
      "stateMutability": "nonpayable",
      "type": "function"
    },
    {
      "inputs": [
        {
          "internalType": "uint256",
          "name": "_articleId",
          "type": "uint256"
        },
        {
          "internalType": "string",
          "name": "_newContent",
          "type": "string"
        }
      ],
      "name": "editArticle",
      "outputs": [],
      "stateMutability": "nonpayable",
      "type": "function"
    },
    {
      "inputs": [
        {
          "internalType": "uint256",
          "name": "_articleId",
          "type": "uint256"
        }
      ],
      "name": "upvoteArticle",
      "outputs": [],
      "stateMutability": "nonpayable",
      "type": "function"
    },
    {
      "inputs": [
        {
          "internalType": "uint256",
          "name": "_articleId",
          "type": "uint256"
        },
        {
          "internalType": "string",
          "name": "_content",
          "type": "string"
        }
      ],
      "name": "addComment",
      "outputs": [],
      "stateMutability": "nonpayable",
      "type": "function"
    },
    {
      "inputs": [
        {
          "internalType": "uint256",
          "name": "_articleId",
          "type": "uint256"
        }
      ],
      "name": "getArticle",
      "outputs": [
        {
          "internalType": "string",
          "name": "title",
          "type": "string"
        },
        {
          "internalType": "string",
          "name": "content",
          "type": "string"
        },
        {
          "internalType": "address",
          "name": "owner",
          "type": "address"
        },
        {
          "internalType": "uint256",
          "name": "upvotes",
          "type": "uint256"
        },
        {
          "internalType": "string[]",
          "name": "tags",
          "type": "string[]"
        },
        {
          "internalType": "string",
          "name": "category",
          "type": "string"
        },
        {
          "internalType": "uint256",
          "name": "commentCount",
          "type": "uint256"
        }
      ],
      "stateMutability": "view",
      "type": "function",
      "constant": true
    },
    {
      "inputs": [
        {
          "internalType": "uint256",
          "name": "_articleId",
          "type": "uint256"
        }
      ],
      "name": "getComments",
      "outputs": [
        {
          "components": [
            {
              "internalType": "address",
              "name": "commenter",
              "type": "address"
            },
            {
              "internalType": "string",
              "name": "content",
              "type": "string"
            },
            {
              "internalType": "uint256",
              "name": "timestamp",
              "type": "uint256"
            }
          ],
          "internalType": "struct Blog.Comment[]",
          "name": "",
          "type": "tuple[]"
        }
      ],
      "stateMutability": "view",
      "type": "function",
      "constant": true
    }
  ],
  "bytecode": "0x608060405234801561001057600080fd5b5060006003819055506120b7806100286000396000f3fe608060405234801561001057600080fd5b506004361061009e5760003560e01c8063aa7e568311610066578063aa7e568314610159578063b1b820fe14610175578063bd85d867146101a5578063ec160ccf146101db578063edcfafe6146101f75761009e565b806323edf697146100a35780632e90808f146100d3578063414e28b0146100ef578063a217de601461010d578063a52c865814610129575b600080fd5b6100bd60048036038101906100b891906115bf565b61022a565b6040516100ca9190611aa3565b60405180910390f35b6100ed60048036038101906100e891906114fc565b610434565b005b6100f7610678565b6040516101049190611d35565b60405180910390f35b610127600480360381019061012291906115bf565b61067e565b005b610143600480360381019061013e91906115e8565b61089b565b6040516101509190611ac5565b60405180910390f35b610173600480360381019061016e9190611624565b6108ca565b005b61018f600480360381019061018a91906115bf565b610aea565b60405161019c9190611ac5565b60405180910390f35b6101bf60048036038101906101ba91906115bf565b610b0a565b6040516101d29796959493929190611b55565b60405180910390f35b6101f560048036038101906101f09190611624565b610efe565b005b610211600480360381019061020c91906115bf565b61111c565b6040516102219493929190611b02565b60405180910390f35b60606003548210610270576040517f08c379a000000000000000000000000000000000000000000000000000000000815260040161026790611c75565b60405180910390fd5b6001600083815260200190815260200160002060009054906101000a900460ff166102d0576040517f08c379a00000000000000000000000000000000000000000000000000000000081526004016102c790611d15565b60405180910390fd5b600080838152602001908152602001600020600601805480602002602001604051908101604052809291908181526020016000905b8282101561042957838290600052602060002090600302016040518060600160405290816000820160009054906101000a900473ffffffffffffffffffffffffffffffffffffffff1673ffffffffffffffffffffffffffffffffffffffff1673ffffffffffffffffffffffffffffffffffffffff16815260200160018201805461038e90611f3a565b80601f01602080910402602001604051908101604052809291908181526020018280546103ba90611f3a565b80156104075780601f106103dc57610100808354040283529160200191610407565b820191906000526020600020905b8154815290600101906020018083116103ea57829003601f168201915b5050505050815260200160028201548152505081526020019060010190610305565b505050509050919050565b6000845111610478576040517f08c379a000000000000000000000000000000000000000000000000000000000815260040161046f90611cb5565b60405180910390fd5b60008351116104bc576040517f08c379a00000000000000000000000000000000000000000000000000000000081526004016104b390611cf5565b60405180910390fd5b600080600060035481526020019081526020016000209050848160000190805190602001906104ec92919061127c565b50806001016040518060400160405280868152602001428152509080600181540180825580915050600190039060005260206000209060020201600090919091909150600082015181600001908051906020019061054b92919061127c565b50602082015181600101555050338160020160006101000a81548173ffffffffffffffffffffffffffffffffffffffff021916908373ffffffffffffffffffffffffffffffffffffffff16021790555060008160030181905550828160040190805190602001906105bd929190611302565b50818160050190805190602001906105d692919061127c565b506001806000600354815260200190815260200160002060006101000a81548160ff0219169083151502179055503373ffffffffffffffffffffffffffffffffffffffff166003547f13da84ef4c0620dacf97bb47c6245159a4c2ab4bb4f9062ec910c4c57de8bb3e87874260405161065193929190611be0565b60405180910390a36003600081548092919061066c90611f6c565b91905055505050505050565b60035481565b60035481106106c2576040517f08c379a00000000000000000000000000000000000000000000000000000000081526004016106b990611c75565b60405180910390fd5b6001600082815260200190815260200160002060009054906101000a900460ff16610722576040517f08c379a000000000000000000000000000000000000000000000000000000000815260040161071990611d15565b60405180910390fd5b6002600082815260200190815260200160002060003373ffffffffffffffffffffffffffffffffffffffff1673ffffffffffffffffffffffffffffffffffffffff16815260200190815260200160002060009054906101000a900460ff16156107c0576040517f08c379a00000000000000000000000000000000000000000000000000000000081526004016107b790611c95565b60405180910390fd5b60008082815260200190815260200160002060030160008154809291906107e690611f6c565b919050555060016002600083815260200190815260200160002060003373ffffffffffffffffffffffffffffffffffffffff1673ffffffffffffffffffffffffffffffffffffffff16815260200190815260200160002060006101000a81548160ff0219169083151502179055503373ffffffffffffffffffffffffffffffffffffffff16817f624412f87fce01f1efc8757dd0f01b8db1ef1b8821db35b8800947d87ee65ba160405160405180910390a350565b60026020528160005260406000206020528060005260406000206000915091509054906101000a900460ff1681565b600354821061090e576040517f08c379a000000000000000000000000000000000000000000000000000000000815260040161090590611c75565b60405180910390fd5b6001600083815260200190815260200160002060009054906101000a900460ff1661096e576040517f08c379a000000000000000000000000000000000000000000000000000000000815260040161096590611d15565b60405180910390fd5b60008151116109b2576040517f08c379a00000000000000000000000000000000000000000000000000000000081526004016109a990611c55565b60405180910390fd5b600060405180606001604052803373ffffffffffffffffffffffffffffffffffffffff16815260200183815260200142815250905060008084815260200190815260200160002060060181908060018154018082558091505060019003906000526020600020906003020160009091909190915060008201518160000160006101000a81548173ffffffffffffffffffffffffffffffffffffffff021916908373ffffffffffffffffffffffffffffffffffffffff1602179055506020820151816001019080519060200190610a8992919061127c565b506040820151816002015550503373ffffffffffffffffffffffffffffffffffffffff16837fcc2d7dd2085ae6644799a42c0174adf9afc10a43f26db5eac3ddd1f96d1d64be84604051610add9190611ae0565b60405180910390a3505050565b60016020528060005260406000206000915054906101000a900460ff1681565b60608060008060608060006003548810610b59576040517f08c379a0000000000000000000000000000000000000000000000000000000008152600401610b5090611c75565b60405180910390fd5b6001600089815260200190815260200160002060009054906101000a900460ff16610bb9576040517f08c379a0000000000000000000000000000000000000000000000000000000008152600401610bb090611d15565b60405180910390fd5b60008060008a81526020019081526020016000209050806000018160010160018360010180549050610beb9190611e7c565b81548110610c22577f4e487b7100000000000000000000000000000000000000000000000000000000600052603260045260246000fd5b90600052602060002090600202016000018260020160009054906101000a900473ffffffffffffffffffffffffffffffffffffffff16836003015484600401856005018660060180549050868054610c7990611f3a565b80601f0160208091040260200160405190810160405280929190818152602001828054610ca590611f3a565b8015610cf25780601f10610cc757610100808354040283529160200191610cf2565b820191906000526020600020905b815481529060010190602001808311610cd557829003601f168201915b50505050509650858054610d0590611f3a565b80601f0160208091040260200160405190810160405280929190818152602001828054610d3190611f3a565b8015610d7e5780601f10610d5357610100808354040283529160200191610d7e565b820191906000526020600020905b815481529060010190602001808311610d6157829003601f168201915b5050505050955082805480602002602001604051908101604052809291908181526020016000905b82821015610e52578382906000526020600020018054610dc590611f3a565b80601f0160208091040260200160405190810160405280929190818152602001828054610df190611f3a565b8015610e3e5780601f10610e1357610100808354040283529160200191610e3e565b820191906000526020600020905b815481529060010190602001808311610e2157829003601f168201915b505050505081526020019060010190610da6565b505050509250818054610e6490611f3a565b80601f0160208091040260200160405190810160405280929190818152602001828054610e9090611f3a565b8015610edd5780601f10610eb257610100808354040283529160200191610edd565b820191906000526020600020905b815481529060010190602001808311610ec057829003601f168201915b50505050509150975097509750975097509750975050919395979092949650565b6003548210610f42576040517f08c379a0000000000000000000000000000000000000000000000000000000008152600401610f3990611c75565b60405180910390fd5b6001600083815260200190815260200160002060009054906101000a900460ff16610fa2576040517f08c379a0000000000000000000000000000000000000000000000000000000008152600401610f9990611d15565b60405180910390fd5b3373ffffffffffffffffffffffffffffffffffffffff1660008084815260200190815260200160002060020160009054906101000a900473ffffffffffffffffffffffffffffffffffffffff1673ffffffffffffffffffffffffffffffffffffffff1614611045576040517f08c379a000000000000000000000000000000000000000000000000000000000815260040161103c90611cd5565b60405180910390fd5b6000806000848152602001908152602001600020905080600101604051806040016040528084815260200142815250908060018154018082558091505060019003906000526020600020906002020160009091909190915060008201518160000190805190602001906110b992919061127c565b506020820151816001015550503373ffffffffffffffffffffffffffffffffffffffff16837f32ab650525cf69f18133ec9ee30bc773cd931042655b8b7f60ae39bd67dceb32844260405161110f929190611c25565b60405180910390a3505050565b600060205280600052604060002060009150905080600001805461113f90611f3a565b80601f016020809104026020016040519081016040528092919081815260200182805461116b90611f3a565b80156111b85780601f1061118d576101008083540402835291602001916111b8565b820191906000526020600020905b81548152906001019060200180831161119b57829003601f168201915b5050505050908060020160009054906101000a900473ffffffffffffffffffffffffffffffffffffffff16908060030154908060050180546111f990611f3a565b80601f016020809104026020016040519081016040528092919081815260200182805461122590611f3a565b80156112725780601f1061124757610100808354040283529160200191611272565b820191906000526020600020905b81548152906001019060200180831161125557829003601f168201915b5050505050905084565b82805461128890611f3a565b90600052602060002090601f0160209004810192826112aa57600085556112f1565b82601f106112c357805160ff19168380011785556112f1565b828001600101855582156112f1579182015b828111156112f05782518255916020019190600101906112d5565b5b5090506112fe9190611362565b5090565b828054828255906000526020600020908101928215611351579160200282015b8281111561135057825182908051906020019061134092919061127c565b5091602001919060010190611322565b5b50905061135e919061137f565b5090565b5b8082111561137b576000816000905550600101611363565b5090565b5b8082111561139f576000818161139691906113a3565b50600101611380565b5090565b5080546113af90611f3a565b6000825580601f106113c157506113e0565b601f0160209004906000526020600020908101906113df9190611362565b5b50565b60006113f66113f184611d81565b611d50565b9050808382526020820190508260005b85811015611436578135850161141c88826114bd565b845260208401935060208301925050600181019050611406565b5050509392505050565b600061145361144e84611dad565b611d50565b90508281526020810184848401111561146b57600080fd5b611476848285611ef8565b509392505050565b60008135905061148d81612053565b92915050565b600082601f8301126114a457600080fd5b81356114b48482602086016113e3565b91505092915050565b600082601f8301126114ce57600080fd5b81356114de848260208601611440565b91505092915050565b6000813590506114f68161206a565b92915050565b6000806000806080858703121561151257600080fd5b600085013567ffffffffffffffff81111561152c57600080fd5b611538878288016114bd565b945050602085013567ffffffffffffffff81111561155557600080fd5b611561878288016114bd565b935050604085013567ffffffffffffffff81111561157e57600080fd5b61158a87828801611493565b925050606085013567ffffffffffffffff8111156115a757600080fd5b6115b3878288016114bd565b91505092959194509250565b6000602082840312156115d157600080fd5b60006115df848285016114e7565b91505092915050565b600080604083850312156115fb57600080fd5b6000611609858286016114e7565b925050602061161a8582860161147e565b9150509250929050565b6000806040838503121561163757600080fd5b6000611645858286016114e7565b925050602083013567ffffffffffffffff81111561166257600080fd5b61166e858286016114bd565b9150509250929050565b600061168483836117b7565b905092915050565b60006116988383611a35565b905092915050565b6116a981611eb0565b82525050565b6116b881611eb0565b82525050565b60006116c982611dfd565b6116d38185611e38565b9350836020820285016116e585611ddd565b8060005b8581101561172157848403895281516117028582611678565b945061170d83611e1e565b925060208a019950506001810190506116e9565b50829750879550505050505092915050565b600061173e82611e08565b6117488185611e49565b93508360208202850161175a85611ded565b8060005b858110156117965784840389528151611777858261168c565b945061178283611e2b565b925060208a0199505060018101905061175e565b50829750879550505050505092915050565b6117b181611ec2565b82525050565b60006117c282611e13565b6117cc8185611e5a565b93506117dc818560208601611f07565b6117e581612042565b840191505092915050565b60006117fb82611e13565b6118058185611e6b565b9350611815818560208601611f07565b61181e81612042565b840191505092915050565b6000611836601783611e6b565b91507f436f6d6d656e742063616e6e6f7420626520656d7074790000000000000000006000830152602082019050919050565b6000611876601983611e6b565b91507f41727469636c6520494420646f6573206e6f74206578697374000000000000006000830152602082019050919050565b60006118b6602583611e6b565b91507f596f75206861766520616c7265616479207570766f746564207468697320617260008301527f7469636c650000000000000000000000000000000000000000000000000000006020830152604082019050919050565b600061191c601583611e6b565b91507f5469746c652063616e6e6f7420626520656d70747900000000000000000000006000830152602082019050919050565b600061195c602483611e6b565b91507f4f6e6c7920746865206f776e65722063616e206564697420746869732061727460008301527f69636c65000000000000000000000000000000000000000000000000000000006020830152604082019050919050565b60006119c2601783611e6b565b91507f436f6e74656e742063616e6e6f7420626520656d7074790000000000000000006000830152602082019050919050565b6000611a02601883611e6b565b91507f41727469636c6520686173206265656e2064656c6574656400000000000000006000830152602082019050919050565b6000606083016000830151611a4d60008601826116a0565b5060208301518482036020860152611a6582826117b7565b9150506040830151611a7a6040860182611a85565b508091505092915050565b611a8e81611eee565b82525050565b611a9d81611eee565b82525050565b60006020820190508181036000830152611abd8184611733565b905092915050565b6000602082019050611ada60008301846117a8565b92915050565b60006020820190508181036000830152611afa81846117f0565b905092915050565b60006080820190508181036000830152611b1c81876117f0565b9050611b2b60208301866116af565b611b386040830185611a94565b8181036060830152611b4a81846117f0565b905095945050505050565b600060e0820190508181036000830152611b6f818a6117f0565b90508181036020830152611b8381896117f0565b9050611b9260408301886116af565b611b9f6060830187611a94565b8181036080830152611bb181866116be565b905081810360a0830152611bc581856117f0565b9050611bd460c0830184611a94565b98975050505050505050565b60006060820190508181036000830152611bfa81866117f0565b90508181036020830152611c0e81856117f0565b9050611c1d6040830184611a94565b949350505050565b60006040820190508181036000830152611c3f81856117f0565b9050611c4e6020830184611a94565b9392505050565b60006020820190508181036000830152611c6e81611829565b9050919050565b60006020820190508181036000830152611c8e81611869565b9050919050565b60006020820190508181036000830152611cae816118a9565b9050919050565b60006020820190508181036000830152611cce8161190f565b9050919050565b60006020820190508181036000830152611cee8161194f565b9050919050565b60006020820190508181036000830152611d0e816119b5565b9050919050565b60006020820190508181036000830152611d2e816119f5565b9050919050565b6000602082019050611d4a6000830184611a94565b92915050565b6000604051905081810181811067ffffffffffffffff82111715611d7757611d76612013565b5b8060405250919050565b600067ffffffffffffffff821115611d9c57611d9b612013565b5b602082029050602081019050919050565b600067ffffffffffffffff821115611dc857611dc7612013565b5b601f19601f8301169050602081019050919050565b6000819050602082019050919050565b6000819050602082019050919050565b600081519050919050565b600081519050919050565b600081519050919050565b6000602082019050919050565b6000602082019050919050565b600082825260208201905092915050565b600082825260208201905092915050565b600082825260208201905092915050565b600082825260208201905092915050565b6000611e8782611eee565b9150611e9283611eee565b925082821015611ea557611ea4611fb5565b5b828203905092915050565b6000611ebb82611ece565b9050919050565b60008115159050919050565b600073ffffffffffffffffffffffffffffffffffffffff82169050919050565b6000819050919050565b82818337600083830152505050565b60005b83811015611f25578082015181840152602081019050611f0a565b83811115611f34576000848401525b50505050565b60006002820490506001821680611f5257607f821691505b60208210811415611f6657611f65611fe4565b5b50919050565b6000611f7782611eee565b91507fffffffffffffffffffffffffffffffffffffffffffffffffffffffffffffffff821415611faa57611fa9611fb5565b5b600182019050919050565b7f4e487b7100000000000000000000000000000000000000000000000000000000600052601160045260246000fd5b7f4e487b7100000000000000000000000000000000000000000000000000000000600052602260045260246000fd5b7f4e487b7100000000000000000000000000000000000000000000000000000000600052604160045260246000fd5b6000601f19601f8301169050919050565b61205c81611eb0565b811461206757600080fd5b50565b61207381611eee565b811461207e57600080fd5b5056fea264697066735822122007fe102fa7e0638c5d770ef104fa9b9f085790f6be9153ebc424d2d67c013ff764736f6c63430008000033",
  "immutableReferences": {},
  "source": "// SPDX-License-Identifier: MIT\npragma solidity ^0.8.0;\n\ncontract Blog {\n    struct Comment {\n        address commenter;\n        string content;\n        uint256 timestamp;\n    }\n\n    struct ArticleVersion {\n        string content;\n        uint256 timestamp;\n    }\n\n    struct Article {\n        string title;\n        ArticleVersion[] versions;\n        address owner;\n        uint256 upvotes;\n        string[] tags;\n        string category;\n        Comment[] comments;\n    }\n\n    mapping(uint256 => Article) public articles;\n    mapping(uint256 => bool) public articleExists;\n    mapping(uint256 => mapping(address => bool)) public hasUpvoted;\n    uint256 public articleCount;\n\n    event ArticleCreated(uint256 indexed articleId, address indexed owner, string title, string content, uint256 timestamp);\n    event ArticleEdited(uint256 indexed articleId, address indexed owner, string newContent, uint256 timestamp);\n    event ArticleUpvoted(uint256 indexed articleId, address indexed upvoter);\n    event CommentAdded(uint256 indexed articleId, address indexed commenter, string content);\n\n    constructor() {\n        articleCount = 0;\n    }\n\n    function createArticle(string memory _title, string memory _content, string[] memory _tags, string memory _category) public {\n        require(bytes(_title).length > 0, \"Title cannot be empty\");\n        require(bytes(_content).length > 0, \"Content cannot be empty\");\n        \n        Article storage newArticle = articles[articleCount];\n        newArticle.title = _title;\n        newArticle.versions.push(ArticleVersion({content: _content, timestamp: block.timestamp}));\n        newArticle.owner = msg.sender;\n        newArticle.upvotes = 0;\n        newArticle.tags = _tags;\n        newArticle.category = _category;\n        articleExists[articleCount] = true;\n        \n        emit ArticleCreated(articleCount, msg.sender, _title, _content, block.timestamp);\n        articleCount++;\n    }\n\n    function editArticle(uint256 _articleId, string memory _newContent) public {\n        require(_articleId < articleCount, \"Article ID does not exist\");\n        require(articleExists[_articleId], \"Article has been deleted\");\n        require(articles[_articleId].owner == msg.sender, \"Only the owner can edit this article\");\n\n        Article storage article = articles[_articleId];\n        article.versions.push(ArticleVersion({content: _newContent, timestamp: block.timestamp}));\n        \n        emit ArticleEdited(_articleId, msg.sender, _newContent, block.timestamp);\n    }\n\n    function upvoteArticle(uint256 _articleId) public {\n        require(_articleId < articleCount, \"Article ID does not exist\");\n        require(articleExists[_articleId], \"Article has been deleted\");\n        require(!hasUpvoted[_articleId][msg.sender], \"You have already upvoted this article\");\n\n        articles[_articleId].upvotes++;\n        hasUpvoted[_articleId][msg.sender] = true;\n        \n        emit ArticleUpvoted(_articleId, msg.sender);\n    }\n\n    function addComment(uint256 _articleId, string memory _content) public {\n        require(_articleId < articleCount, \"Article ID does not exist\");\n        require(articleExists[_articleId], \"Article has been deleted\");\n        require(bytes(_content).length > 0, \"Comment cannot be empty\");\n\n        Comment memory newComment = Comment({\n            commenter: msg.sender,\n            content: _content,\n            timestamp: block.timestamp\n        });\n\n        articles[_articleId].comments.push(newComment);\n        \n        emit CommentAdded(_articleId, msg.sender, _content);\n    }\n\n    function getArticle(uint256 _articleId) public view returns (\n        string memory title,\n        string memory content, \n        address owner, \n        uint256 upvotes, \n        string[] memory tags, \n        string memory category, \n        uint256 commentCount\n    ) {\n        require(_articleId < articleCount, \"Article ID does not exist\");\n        require(articleExists[_articleId], \"Article has been deleted\");\n        \n        Article storage article = articles[_articleId];\n        return (\n            article.title,\n            article.versions[article.versions.length - 1].content, \n            article.owner, \n            article.upvotes, \n            article.tags, \n            article.category, \n            article.comments.length\n        );\n    }\n\n    function getComments(uint256 _articleId) public view returns (Comment[] memory) {\n        require(_articleId < articleCount, \"Article ID does not exist\");\n        require(articleExists[_articleId], \"Article has been deleted\");\n        \n        return articles[_articleId].comments;\n    }\n}\n",
  "sourcePath": "/home/sazalo/CELOPROJECTS/blog/contracts/Blog.sol",
  "compiler": {
    "name": "solc",
    "version": "0.8.0+commit.c7dfd78e.Emscripten.clang"
  },
  "schemaVersion": "3.4.16",
  "updatedAt": "2024-09-08T15:37:48.559Z",
  "networkType": "ethereum",
  "devdoc": {
    "kind": "dev",
    "methods": {},
    "version": 1
  },
  "userdoc": {
    "kind": "user",
    "methods": {},
    "version": 1
  }
}