{
  "contractName": "ArticleWritingDApp",
  "abi": [
    {
      "anonymous": false,
      "inputs": [
        {
          "indexed": false,
          "internalType": "uint256",
          "name": "id",
          "type": "uint256"
        },
        {
          "indexed": false,
          "internalType": "address",
          "name": "author",
          "type": "address"
        },
        {
          "indexed": false,
          "internalType": "string",
          "name": "title",
          "type": "string"
        },
        {
          "indexed": false,
          "internalType": "string",
          "name": "content",
          "type": "string"
        },
        {
          "indexed": false,
          "internalType": "uint256",
          "name": "timestamp",
          "type": "uint256"
        }
      ],
      "name": "ArticleCreated",
      "type": "event"
    },
    {
      "inputs": [],
      "name": "articleCount",
      "outputs": [
        {
          "internalType": "uint256",
          "name": "",
          "type": "uint256"
        }
      ],
      "stateMutability": "view",
      "type": "function"
    },
    {
      "inputs": [
        {
          "internalType": "uint256",
          "name": "",
          "type": "uint256"
        }
      ],
      "name": "articles",
      "outputs": [
        {
          "internalType": "uint256",
          "name": "id",
          "type": "uint256"
        },
        {
          "internalType": "address",
          "name": "author",
          "type": "address"
        },
        {
          "internalType": "string",
          "name": "title",
          "type": "string"
        },
        {
          "internalType": "string",
          "name": "content",
          "type": "string"
        },
        {
          "internalType": "uint256",
          "name": "timestamp",
          "type": "uint256"
        }
      ],
      "stateMutability": "view",
      "type": "function"
    },
    {
      "inputs": [
        {
          "internalType": "string",
          "name": "_title",
          "type": "string"
        },
        {
          "internalType": "string",
          "name": "_content",
          "type": "string"
        }
      ],
      "name": "createArticle",
      "outputs": [],
      "stateMutability": "nonpayable",
      "type": "function"
    },
    {
      "inputs": [
        {
          "internalType": "uint256",
          "name": "_id",
          "type": "uint256"
        }
      ],
      "name": "getArticle",
      "outputs": [
        {
          "internalType": "uint256",
          "name": "",
          "type": "uint256"
        },
        {
          "internalType": "address",
          "name": "",
          "type": "address"
        },
        {
          "internalType": "string",
          "name": "",
          "type": "string"
        },
        {
          "internalType": "string",
          "name": "",
          "type": "string"
        },
        {
          "internalType": "uint256",
          "name": "",
          "type": "uint256"
        }
      ],
      "stateMutability": "view",
      "type": "function"
    }
  ],
  "bytecode": "0x608060405234801561001057600080fd5b50610c09806100206000396000f3fe608060405234801561001057600080fd5b506004361061004c5760003560e01c8063414e28b0146100515780638cfa22721461006f578063bd85d8671461008b578063edcfafe6146100bf575b600080fd5b6100596100f3565b604051610066919061092c565b60405180910390f35b61008960048036038101906100849190610720565b6100f9565b005b6100a560048036038101906100a0919061078c565b6102c8565b6040516100b6959493929190610947565b60405180910390f35b6100d960048036038101906100d4919061078c565b61049a565b6040516100ea959493929190610947565b60405180910390f35b60005481565b600082511161013d576040517f08c379a0000000000000000000000000000000000000000000000000000000008152600401610134906108cc565b60405180910390fd5b6000815111610181576040517f08c379a0000000000000000000000000000000000000000000000000000000008152600401610178906108ec565b60405180910390fd5b60008081548092919061019390610ad5565b91905055506040518060a0016040528060005481526020013373ffffffffffffffffffffffffffffffffffffffff1681526020018381526020018281526020014281525060016000805481526020019081526020016000206000820151816000015560208201518160010160006101000a81548173ffffffffffffffffffffffffffffffffffffffff021916908373ffffffffffffffffffffffffffffffffffffffff1602179055506040820151816002019080519060200190610258929190610600565b506060820151816003019080519060200190610275929190610600565b50608082015181600401559050507f13da84ef4c0620dacf97bb47c6245159a4c2ab4bb4f9062ec910c4c57de8bb3e600054338484426040516102bc959493929190610947565b60405180910390a15050565b600080606080600080861180156102e157506000548611155b610320576040517f08c379a00000000000000000000000000000000000000000000000000000000081526004016103179061090c565b60405180910390fd5b600060016000888152602001908152602001600020905080600001548160010160009054906101000a900473ffffffffffffffffffffffffffffffffffffffff168260020183600301846004015482805461037a90610aa3565b80601f01602080910402602001604051908101604052809291908181526020018280546103a690610aa3565b80156103f35780601f106103c8576101008083540402835291602001916103f3565b820191906000526020600020905b8154815290600101906020018083116103d657829003601f168201915b5050505050925081805461040690610aa3565b80601f016020809104026020016040519081016040528092919081815260200182805461043290610aa3565b801561047f5780601f106104545761010080835404028352916020019161047f565b820191906000526020600020905b81548152906001019060200180831161046257829003601f168201915b50505050509150955095509550955095505091939590929450565b60016020528060005260406000206000915090508060000154908060010160009054906101000a900473ffffffffffffffffffffffffffffffffffffffff16908060020180546104e990610aa3565b80601f016020809104026020016040519081016040528092919081815260200182805461051590610aa3565b80156105625780601f1061053757610100808354040283529160200191610562565b820191906000526020600020905b81548152906001019060200180831161054557829003601f168201915b50505050509080600301805461057790610aa3565b80601f01602080910402602001604051908101604052809291908181526020018280546105a390610aa3565b80156105f05780601f106105c5576101008083540402835291602001916105f0565b820191906000526020600020905b8154815290600101906020018083116105d357829003601f168201915b5050505050908060040154905085565b82805461060c90610aa3565b90600052602060002090601f01602090048101928261062e5760008555610675565b82601f1061064757805160ff1916838001178555610675565b82800160010185558215610675579182015b82811115610674578251825591602001919060010190610659565b5b5090506106829190610686565b5090565b5b8082111561069f576000816000905550600101610687565b5090565b60006106b66106b1846109d9565b6109a8565b9050828152602081018484840111156106ce57600080fd5b6106d9848285610a61565b509392505050565b600082601f8301126106f257600080fd5b81356107028482602086016106a3565b91505092915050565b60008135905061071a81610bbc565b92915050565b6000806040838503121561073357600080fd5b600083013567ffffffffffffffff81111561074d57600080fd5b610759858286016106e1565b925050602083013567ffffffffffffffff81111561077657600080fd5b610782858286016106e1565b9150509250929050565b60006020828403121561079e57600080fd5b60006107ac8482850161070b565b91505092915050565b6107be81610a25565b82525050565b60006107cf82610a09565b6107d98185610a14565b93506107e9818560208601610a70565b6107f281610bab565b840191505092915050565b600061080a601583610a14565b91507f5469746c652063616e6e6f7420626520656d70747900000000000000000000006000830152602082019050919050565b600061084a601783610a14565b91507f436f6e74656e742063616e6e6f7420626520656d7074790000000000000000006000830152602082019050919050565b600061088a601283610a14565b91507f496e76616c69642061727469636c6520494400000000000000000000000000006000830152602082019050919050565b6108c681610a57565b82525050565b600060208201905081810360008301526108e5816107fd565b9050919050565b600060208201905081810360008301526109058161083d565b9050919050565b600060208201905081810360008301526109258161087d565b9050919050565b600060208201905061094160008301846108bd565b92915050565b600060a08201905061095c60008301886108bd565b61096960208301876107b5565b818103604083015261097b81866107c4565b9050818103606083015261098f81856107c4565b905061099e60808301846108bd565b9695505050505050565b6000604051905081810181811067ffffffffffffffff821117156109cf576109ce610b7c565b5b8060405250919050565b600067ffffffffffffffff8211156109f4576109f3610b7c565b5b601f19601f8301169050602081019050919050565b600081519050919050565b600082825260208201905092915050565b6000610a3082610a37565b9050919050565b600073ffffffffffffffffffffffffffffffffffffffff82169050919050565b6000819050919050565b82818337600083830152505050565b60005b83811015610a8e578082015181840152602081019050610a73565b83811115610a9d576000848401525b50505050565b60006002820490506001821680610abb57607f821691505b60208210811415610acf57610ace610b4d565b5b50919050565b6000610ae082610a57565b91507fffffffffffffffffffffffffffffffffffffffffffffffffffffffffffffffff821415610b1357610b12610b1e565b5b600182019050919050565b7f4e487b7100000000000000000000000000000000000000000000000000000000600052601160045260246000fd5b7f4e487b7100000000000000000000000000000000000000000000000000000000600052602260045260246000fd5b7f4e487b7100000000000000000000000000000000000000000000000000000000600052604160045260246000fd5b6000601f19601f8301169050919050565b610bc581610a57565b8114610bd057600080fd5b5056fea264697066735822122008a8ca9043baa93da5b1755882b4c301a311594c133634e85e7a144278a755a464736f6c63430008000033",
  "immutableReferences": {},
  "source": "// SPDX-License-Identifier: MIT\npragma solidity ^0.8.0;\n\ncontract ArticleWritingDApp {\n    struct Article {\n        uint id;\n        address author;\n        string title;\n        string content;\n        uint timestamp;\n    }\n\n    uint public articleCount;\n    mapping(uint => Article) public articles;\n\n    event ArticleCreated(\n        uint id,\n        address author,\n        string title,\n        string content,\n        uint timestamp\n    );\n\n    // Function to create an article\n    function createArticle(string memory _title, string memory _content) public {\n        require(bytes(_title).length > 0, \"Title cannot be empty\");\n        require(bytes(_content).length > 0, \"Content cannot be empty\");\n\n        articleCount++;\n\n        articles[articleCount] = Article(\n            articleCount,\n            msg.sender,\n            _title,\n            _content,\n            block.timestamp\n        );\n\n        emit ArticleCreated(articleCount, msg.sender, _title, _content, block.timestamp);\n    }\n\n    // Function to fetch an article by ID\n    function getArticle(uint _id) public view returns (\n        uint, \n        address, \n        string memory, \n        string memory, \n        uint\n    ) {\n        require(_id > 0 && _id <= articleCount, \"Invalid article ID\");\n        Article storage article = articles[_id];\n        return (\n            article.id,\n            article.author,\n            article.title,\n            article.content,\n            article.timestamp\n        );\n    }\n}\n",
  "sourcePath": "/home/sazalo/CELOPROJECTS/deadstreet/contracts/Veeko.sol",
  "compiler": {
    "name": "solc",
    "version": "0.8.0+commit.c7dfd78e.Emscripten.clang"
  },
  "schemaVersion": "3.4.16",
  "updatedAt": "2024-09-21T11:16:44.579Z",
  "devdoc": {
    "kind": "dev",
    "methods": {},
    "version": 1
  },
  "userdoc": {
    "kind": "user",
    "methods": {},
    "version": 1
  }
}