{
  "contractName": "Deadstreet",
  "abi": [
    {
      "inputs": [],
      "stateMutability": "nonpayable",
      "type": "constructor"
    },
    {
      "anonymous": false,
      "inputs": [
        {
          "indexed": true,
          "internalType": "uint256",
          "name": "pasteId",
          "type": "uint256"
        },
        {
          "indexed": true,
          "internalType": "address",
          "name": "commenter",
          "type": "address"
        },
        {
          "indexed": false,
          "internalType": "string",
          "name": "content",
          "type": "string"
        }
      ],
      "name": "CommentAdded",
      "type": "event"
    },
    {
      "anonymous": false,
      "inputs": [
        {
          "indexed": true,
          "internalType": "address",
          "name": "sender",
          "type": "address"
        },
        {
          "indexed": true,
          "internalType": "address",
          "name": "receiver",
          "type": "address"
        },
        {
          "indexed": false,
          "internalType": "string",
          "name": "content",
          "type": "string"
        },
        {
          "indexed": false,
          "internalType": "uint256",
          "name": "timestamp",
          "type": "uint256"
        }
      ],
      "name": "MessageSent",
      "type": "event"
    },
    {
      "anonymous": false,
      "inputs": [
        {
          "indexed": true,
          "internalType": "uint256",
          "name": "pasteId",
          "type": "uint256"
        },
        {
          "indexed": true,
          "internalType": "address",
          "name": "owner",
          "type": "address"
        },
        {
          "indexed": false,
          "internalType": "string",
          "name": "content",
          "type": "string"
        },
        {
          "indexed": false,
          "internalType": "uint256",
          "name": "timestamp",
          "type": "uint256"
        }
      ],
      "name": "PasteCreated",
      "type": "event"
    },
    {
      "anonymous": false,
      "inputs": [
        {
          "indexed": true,
          "internalType": "uint256",
          "name": "pasteId",
          "type": "uint256"
        },
        {
          "indexed": true,
          "internalType": "address",
          "name": "owner",
          "type": "address"
        }
      ],
      "name": "PasteDeleted",
      "type": "event"
    },
    {
      "anonymous": false,
      "inputs": [
        {
          "indexed": true,
          "internalType": "uint256",
          "name": "pasteId",
          "type": "uint256"
        },
        {
          "indexed": true,
          "internalType": "address",
          "name": "owner",
          "type": "address"
        },
        {
          "indexed": false,
          "internalType": "string",
          "name": "newContent",
          "type": "string"
        },
        {
          "indexed": false,
          "internalType": "uint256",
          "name": "timestamp",
          "type": "uint256"
        }
      ],
      "name": "PasteEdited",
      "type": "event"
    },
    {
      "anonymous": false,
      "inputs": [
        {
          "indexed": true,
          "internalType": "uint256",
          "name": "originalPasteId",
          "type": "uint256"
        },
        {
          "indexed": true,
          "internalType": "uint256",
          "name": "newPasteId",
          "type": "uint256"
        },
        {
          "indexed": true,
          "internalType": "address",
          "name": "owner",
          "type": "address"
        }
      ],
      "name": "PasteForked",
      "type": "event"
    },
    {
      "anonymous": false,
      "inputs": [
        {
          "indexed": true,
          "internalType": "uint256",
          "name": "pasteId",
          "type": "uint256"
        },
        {
          "indexed": true,
          "internalType": "address",
          "name": "upvoter",
          "type": "address"
        }
      ],
      "name": "PasteUpvoted",
      "type": "event"
    },
    {
      "anonymous": false,
      "inputs": [
        {
          "indexed": true,
          "internalType": "address",
          "name": "follower",
          "type": "address"
        },
        {
          "indexed": true,
          "internalType": "address",
          "name": "followee",
          "type": "address"
        }
      ],
      "name": "UserFollowed",
      "type": "event"
    },
    {
      "inputs": [
        {
          "internalType": "address",
          "name": "",
          "type": "address"
        },
        {
          "internalType": "address",
          "name": "",
          "type": "address"
        }
      ],
      "name": "followers",
      "outputs": [
        {
          "internalType": "address",
          "name": "follower",
          "type": "address"
        },
        {
          "internalType": "bool",
          "name": "isFollowing",
          "type": "bool"
        }
      ],
      "stateMutability": "view",
      "type": "function"
    },
    {
      "inputs": [
        {
          "internalType": "uint256",
          "name": "",
          "type": "uint256"
        },
        {
          "internalType": "address",
          "name": "",
          "type": "address"
        }
      ],
      "name": "hasUpvoted",
      "outputs": [
        {
          "internalType": "bool",
          "name": "",
          "type": "bool"
        }
      ],
      "stateMutability": "view",
      "type": "function"
    },
    {
      "inputs": [],
      "name": "pasteCount",
      "outputs": [
        {
          "internalType": "uint256",
          "name": "",
          "type": "uint256"
        }
      ],
      "stateMutability": "view",
      "type": "function"
    },
    {
      "inputs": [
        {
          "internalType": "uint256",
          "name": "",
          "type": "uint256"
        }
      ],
      "name": "pasteExists",
      "outputs": [
        {
          "internalType": "bool",
          "name": "",
          "type": "bool"
        }
      ],
      "stateMutability": "view",
      "type": "function"
    },
    {
      "inputs": [
        {
          "internalType": "uint256",
          "name": "",
          "type": "uint256"
        }
      ],
      "name": "pastes",
      "outputs": [
        {
          "internalType": "address",
          "name": "owner",
          "type": "address"
        },
        {
          "internalType": "uint256",
          "name": "upvotes",
          "type": "uint256"
        },
        {
          "internalType": "string",
          "name": "category",
          "type": "string"
        }
      ],
      "stateMutability": "view",
      "type": "function"
    },
    {
      "inputs": [
        {
          "internalType": "address",
          "name": "",
          "type": "address"
        },
        {
          "internalType": "address",
          "name": "",
          "type": "address"
        },
        {
          "internalType": "uint256",
          "name": "",
          "type": "uint256"
        }
      ],
      "name": "privateChats",
      "outputs": [
        {
          "internalType": "address",
          "name": "sender",
          "type": "address"
        },
        {
          "internalType": "string",
          "name": "content",
          "type": "string"
        },
        {
          "internalType": "uint256",
          "name": "timestamp",
          "type": "uint256"
        }
      ],
      "stateMutability": "view",
      "type": "function"
    },
    {
      "inputs": [
        {
          "internalType": "string",
          "name": "_content",
          "type": "string"
        },
        {
          "internalType": "string[]",
          "name": "_tags",
          "type": "string[]"
        },
        {
          "internalType": "string",
          "name": "_category",
          "type": "string"
        }
      ],
      "name": "createPaste",
      "outputs": [],
      "stateMutability": "nonpayable",
      "type": "function"
    },
    {
      "inputs": [
        {
          "internalType": "uint256",
          "name": "_pasteId",
          "type": "uint256"
        },
        {
          "internalType": "string",
          "name": "_newContent",
          "type": "string"
        }
      ],
      "name": "editPaste",
      "outputs": [],
      "stateMutability": "nonpayable",
      "type": "function"
    },
    {
      "inputs": [
        {
          "internalType": "uint256",
          "name": "_pasteId",
          "type": "uint256"
        },
        {
          "internalType": "string",
          "name": "_newContent",
          "type": "string"
        }
      ],
      "name": "forkPaste",
      "outputs": [],
      "stateMutability": "nonpayable",
      "type": "function"
    },
    {
      "inputs": [
        {
          "internalType": "address",
          "name": "_userToFollow",
          "type": "address"
        }
      ],
      "name": "followUser",
      "outputs": [],
      "stateMutability": "nonpayable",
      "type": "function"
    },
    {
      "inputs": [
        {
          "internalType": "address",
          "name": "_recipient",
          "type": "address"
        },
        {
          "internalType": "string",
          "name": "_content",
          "type": "string"
        }
      ],
      "name": "sendMessage",
      "outputs": [],
      "stateMutability": "nonpayable",
      "type": "function"
    },
    {
      "inputs": [
        {
          "internalType": "uint256",
          "name": "_pasteId",
          "type": "uint256"
        }
      ],
      "name": "getPaste",
      "outputs": [
        {
          "internalType": "string",
          "name": "content",
          "type": "string"
        },
        {
          "internalType": "address",
          "name": "owner",
          "type": "address"
        },
        {
          "internalType": "uint256",
          "name": "upvotes",
          "type": "uint256"
        },
        {
          "internalType": "string[]",
          "name": "tags",
          "type": "string[]"
        },
        {
          "internalType": "string",
          "name": "category",
          "type": "string"
        },
        {
          "internalType": "uint256",
          "name": "commentCount",
          "type": "uint256"
        }
      ],
      "stateMutability": "view",
      "type": "function"
    },
    {
      "inputs": [
        {
          "internalType": "uint256",
          "name": "_pasteId",
          "type": "uint256"
        }
      ],
      "name": "deletePaste",
      "outputs": [],
      "stateMutability": "nonpayable",
      "type": "function"
    },
    {
      "inputs": [
        {
          "internalType": "uint256",
          "name": "_pasteId",
          "type": "uint256"
        }
      ],
      "name": "upvotePaste",
      "outputs": [],
      "stateMutability": "nonpayable",
      "type": "function"
    },
    {
      "inputs": [
        {
          "internalType": "uint256",
          "name": "_pasteId",
          "type": "uint256"
        },
        {
          "internalType": "string",
          "name": "_content",
          "type": "string"
        }
      ],
      "name": "addComment",
      "outputs": [],
      "stateMutability": "nonpayable",
      "type": "function"
    },
    {
      "inputs": [
        {
          "internalType": "uint256",
          "name": "_pasteId",
          "type": "uint256"
        }
      ],
      "name": "getComments",
      "outputs": [
        {
          "components": [
            {
              "internalType": "address",
              "name": "commenter",
              "type": "address"
            },
            {
              "internalType": "string",
              "name": "content",
              "type": "string"
            },
            {
              "internalType": "uint256",
              "name": "timestamp",
              "type": "uint256"
            }
          ],
          "internalType": "struct Deadstreet.Comment[]",
          "name": "",
          "type": "tuple[]"
        }
      ],
      "stateMutability": "view",
      "type": "function"
    },
    {
      "inputs": [
        {
          "internalType": "address",
          "name": "_withUser",
          "type": "address"
        }
      ],
      "name": "getMessages",
      "outputs": [
        {
          "components": [
            {
              "internalType": "address",
              "name": "sender",
              "type": "address"
            },
            {
              "internalType": "string",
              "name": "content",
              "type": "string"
            },
            {
              "internalType": "uint256",
              "name": "timestamp",
              "type": "uint256"
            }
          ],
          "internalType": "struct Deadstreet.Message[]",
          "name": "",
          "type": "tuple[]"
        }
      ],
      "stateMutability": "view",
      "type": "function"
    }
  ],
  "bytecode": "0x608060405234801561001057600080fd5b5060006005819055506130cd806100286000396000f3fe608060405234801561001057600080fd5b506004361061010b5760003560e01c80638333556e116100a2578063ad88881b11610071578063ad88881b146102b6578063b2f71322146102e7578063cece930814610317578063de6f24bb14610347578063f2b6028d146103635761010b565b80638333556e1461021c578063a52c86581461024e578063a70806f71461027e578063aa7e56831461029a5761010b565b80633e2e2c77116100de5780633e2e2c771461019657806344e03f38146101b257806371c214ac146101ce5780637aae0e2d146102005761010b565b8063052dccfe1461011057806310c6df931461012e57806323edf6971461014a5780633b48ce2c1461017a575b600080fd5b610118610398565b6040516101259190612d12565b60405180910390f35b610148600480360381019061014391906123c8565b61039e565b005b610164600480360381019061015f9190612363565b61061a565b6040516101719190612aab565b60405180910390f35b610194600480360381019061018f9190612363565b610824565b005b6101b060048036038101906101ab91906123c8565b610a41565b005b6101cc60048036038101906101c791906122cc565b610c5f565b005b6101e860048036038101906101e39190612229565b610e43565b6040516101f793929190612a2f565b60405180910390f35b61021a60048036038101906102159190612363565b610f3f565b005b61023660048036038101906102319190612363565b611174565b60405161024593929190612a6d565b60405180910390f35b6102686004803603810190610263919061238c565b611246565b6040516102759190612aef565b60405180910390f35b610298600480360381019061029391906121c4565b611275565b005b6102b460048036038101906102af91906123c8565b611497565b005b6102d060048036038101906102cb91906121ed565b6116b7565b6040516102de929190612a06565b60405180910390f35b61030160048036038101906102fc91906121c4565b611715565b60405161030e9190612acd565b60405180910390f35b610331600480360381019061032c9190612363565b6118e2565b60405161033e9190612aef565b60405180910390f35b610361600480360381019061035c9190612278565b611902565b005b61037d60048036038101906103789190612363565b611af7565b60405161038f96959493929190612b2c565b60405180910390f35b60055481565b60055482106103e2576040517f08c379a00000000000000000000000000000000000000000000000000000000081526004016103d990612bf2565b60405180910390fd5b6001600083815260200190815260200160002060009054906101000a900460ff16610442576040517f08c379a000000000000000000000000000000000000000000000000000000000815260040161043990612c72565b60405180910390fd5b600080600084815260200190815260200160002090506105c28282600301805480602002602001604051908101604052809291908181526020016000905b8282101561052c57838290600052602060002001805461049f90612f50565b80601f01602080910402602001604051908101604052809291908181526020018280546104cb90612f50565b80156105185780601f106104ed57610100808354040283529160200191610518565b820191906000526020600020905b8154815290600101906020018083116104fb57829003601f168201915b505050505081526020019060010190610480565b5050505083600401805461053f90612f50565b80601f016020809104026020016040519081016040528092919081815260200182805461056b90612f50565b80156105b85780601f1061058d576101008083540402835291602001916105b8565b820191906000526020600020905b81548152906001019060200180831161059b57829003601f168201915b5050505050610c5f565b3373ffffffffffffffffffffffffffffffffffffffff1660016005546105e89190612e92565b847f183d51cb5718d710996f40df20c7e2b59b5055d46bb4325ae79d32b4f0e44f4060405160405180910390a4505050565b60606005548210610660576040517f08c379a000000000000000000000000000000000000000000000000000000000815260040161065790612bf2565b60405180910390fd5b6001600083815260200190815260200160002060009054906101000a900460ff166106c0576040517f08c379a00000000000000000000000000000000000000000000000000000000081526004016106b790612c72565b60405180910390fd5b600080838152602001908152602001600020600501805480602002602001604051908101604052809291908181526020016000905b8282101561081957838290600052602060002090600302016040518060600160405290816000820160009054906101000a900473ffffffffffffffffffffffffffffffffffffffff1673ffffffffffffffffffffffffffffffffffffffff1673ffffffffffffffffffffffffffffffffffffffff16815260200160018201805461077e90612f50565b80601f01602080910402602001604051908101604052809291908181526020018280546107aa90612f50565b80156107f75780601f106107cc576101008083540402835291602001916107f7565b820191906000526020600020905b8154815290600101906020018083116107da57829003601f168201915b50505050508152602001600282015481525050815260200190600101906106f5565b505050509050919050565b6005548110610868576040517f08c379a000000000000000000000000000000000000000000000000000000000815260040161085f90612bf2565b60405180910390fd5b6001600082815260200190815260200160002060009054906101000a900460ff166108c8576040517f08c379a00000000000000000000000000000000000000000000000000000000081526004016108bf90612c72565b60405180910390fd5b6002600082815260200190815260200160002060003373ffffffffffffffffffffffffffffffffffffffff1673ffffffffffffffffffffffffffffffffffffffff16815260200190815260200160002060009054906101000a900460ff1615610966576040517f08c379a000000000000000000000000000000000000000000000000000000000815260040161095d90612c52565b60405180910390fd5b600080828152602001908152602001600020600201600081548092919061098c90612f82565b919050555060016002600083815260200190815260200160002060003373ffffffffffffffffffffffffffffffffffffffff1673ffffffffffffffffffffffffffffffffffffffff16815260200190815260200160002060006101000a81548160ff0219169083151502179055503373ffffffffffffffffffffffffffffffffffffffff16817f7f3de23d8132ca97ff33527d50f9fb7f8ce97f1f88cdf3c6595ca4b3b7ff7e0860405160405180910390a350565b6005548210610a85576040517f08c379a0000000000000000000000000000000000000000000000000000000008152600401610a7c90612bf2565b60405180910390fd5b6001600083815260200190815260200160002060009054906101000a900460ff16610ae5576040517f08c379a0000000000000000000000000000000000000000000000000000000008152600401610adc90612c72565b60405180910390fd5b3373ffffffffffffffffffffffffffffffffffffffff1660008084815260200190815260200160002060010160009054906101000a900473ffffffffffffffffffffffffffffffffffffffff1673ffffffffffffffffffffffffffffffffffffffff1614610b88576040517f08c379a0000000000000000000000000000000000000000000000000000000008152600401610b7f90612c92565b60405180910390fd5b600080600084815260200190815260200160002090508060000160405180604001604052808481526020014281525090806001815401808255809150506001900390600052602060002090600202016000909190919091506000820151816000019080519060200190610bfc929190611e56565b506020820151816001015550503373ffffffffffffffffffffffffffffffffffffffff16837f87558d1ee107ab5306cb4a6354cf0640f88af13c0e5449dce24315fc1ee1840c8442604051610c52929190612ba2565b60405180910390a3505050565b6000835111610ca3576040517f08c379a0000000000000000000000000000000000000000000000000000000008152600401610c9a90612c32565b60405180910390fd5b6000806000600554815260200190815260200160002090508060000160405180604001604052808681526020014281525090806001815401808255809150506001900390600052602060002090600202016000909190919091506000820151816000019080519060200190610d19929190611e56565b50602082015181600101555050338160010160006101000a81548173ffffffffffffffffffffffffffffffffffffffff021916908373ffffffffffffffffffffffffffffffffffffffff1602179055506000816002018190555082816003019080519060200190610d8b929190611edc565b5081816004019080519060200190610da4929190611e56565b506001806000600554815260200190815260200160002060006101000a81548160ff0219169083151502179055503373ffffffffffffffffffffffffffffffffffffffff166005547f6ffc9a13ae2e12de80f71439a0e61433b1c0b90041722a49dfd6e3d5558d65468642604051610e1d929190612ba2565b60405180910390a360056000815480929190610e3890612f82565b919050555050505050565b60046020528260005260406000206020528160005260406000208181548110610e6b57600080fd5b906000526020600020906003020160009250925050508060000160009054906101000a900473ffffffffffffffffffffffffffffffffffffffff1690806001018054610eb690612f50565b80601f0160208091040260200160405190810160405280929190818152602001828054610ee290612f50565b8015610f2f5780601f10610f0457610100808354040283529160200191610f2f565b820191906000526020600020905b815481529060010190602001808311610f1257829003601f168201915b5050505050908060020154905083565b6005548110610f83576040517f08c379a0000000000000000000000000000000000000000000000000000000008152600401610f7a90612bf2565b60405180910390fd5b6001600082815260200190815260200160002060009054906101000a900460ff16610fe3576040517f08c379a0000000000000000000000000000000000000000000000000000000008152600401610fda90612c12565b60405180910390fd5b3373ffffffffffffffffffffffffffffffffffffffff1660008083815260200190815260200160002060010160009054906101000a900473ffffffffffffffffffffffffffffffffffffffff1673ffffffffffffffffffffffffffffffffffffffff1614611086576040517f08c379a000000000000000000000000000000000000000000000000000000000815260040161107d90612cd2565b60405180910390fd5b600080828152602001908152602001600020600080820160006110a99190611f3c565b6001820160006101000a81549073ffffffffffffffffffffffffffffffffffffffff021916905560028201600090556003820160006110e89190611f60565b6004820160006110f89190611f81565b6005820160006111089190611fc1565b50506001600082815260200190815260200160002060006101000a81549060ff02191690553373ffffffffffffffffffffffffffffffffffffffff16817f3b529358fd8f41dd73541b3cee53aec3f969f15dcf6efb3e09b6d236752249bc60405160405180910390a350565b60006020528060005260406000206000915090508060010160009054906101000a900473ffffffffffffffffffffffffffffffffffffffff16908060020154908060040180546111c390612f50565b80601f01602080910402602001604051908101604052809291908181526020018280546111ef90612f50565b801561123c5780601f106112115761010080835404028352916020019161123c565b820191906000526020600020905b81548152906001019060200180831161121f57829003601f168201915b5050505050905083565b60026020528160005260406000206020528060005260406000206000915091509054906101000a900460ff1681565b3373ffffffffffffffffffffffffffffffffffffffff168173ffffffffffffffffffffffffffffffffffffffff1614156112e4576040517f08c379a00000000000000000000000000000000000000000000000000000000081526004016112db90612cf2565b60405180910390fd5b33600360003373ffffffffffffffffffffffffffffffffffffffff1673ffffffffffffffffffffffffffffffffffffffff16815260200190815260200160002060008373ffffffffffffffffffffffffffffffffffffffff1673ffffffffffffffffffffffffffffffffffffffff16815260200190815260200160002060000160006101000a81548173ffffffffffffffffffffffffffffffffffffffff021916908373ffffffffffffffffffffffffffffffffffffffff1602179055506001600360003373ffffffffffffffffffffffffffffffffffffffff1673ffffffffffffffffffffffffffffffffffffffff16815260200190815260200160002060008373ffffffffffffffffffffffffffffffffffffffff1673ffffffffffffffffffffffffffffffffffffffff16815260200190815260200160002060000160146101000a81548160ff0219169083151502179055508073ffffffffffffffffffffffffffffffffffffffff163373ffffffffffffffffffffffffffffffffffffffff167f30b3435b456f45779984ddfa456115ee4c20d9e446979b1b9e90dbb7e12b90b760405160405180910390a350565b60055482106114db576040517f08c379a00000000000000000000000000000000000000000000000000000000081526004016114d290612bf2565b60405180910390fd5b6001600083815260200190815260200160002060009054906101000a900460ff1661153b576040517f08c379a000000000000000000000000000000000000000000000000000000000815260040161153290612c72565b60405180910390fd5b600081511161157f576040517f08c379a000000000000000000000000000000000000000000000000000000000815260040161157690612bd2565b60405180910390fd5b600060405180606001604052803373ffffffffffffffffffffffffffffffffffffffff16815260200183815260200142815250905060008084815260200190815260200160002060050181908060018154018082558091505060019003906000526020600020906003020160009091909190915060008201518160000160006101000a81548173ffffffffffffffffffffffffffffffffffffffff021916908373ffffffffffffffffffffffffffffffffffffffff1602179055506020820151816001019080519060200190611656929190611e56565b506040820151816002015550503373ffffffffffffffffffffffffffffffffffffffff16837fcc2d7dd2085ae6644799a42c0174adf9afc10a43f26db5eac3ddd1f96d1d64be846040516116aa9190612b0a565b60405180910390a3505050565b6003602052816000526040600020602052806000526040600020600091509150508060000160009054906101000a900473ffffffffffffffffffffffffffffffffffffffff16908060000160149054906101000a900460ff16905082565b6060600460003373ffffffffffffffffffffffffffffffffffffffff1673ffffffffffffffffffffffffffffffffffffffff16815260200190815260200160002060008373ffffffffffffffffffffffffffffffffffffffff1673ffffffffffffffffffffffffffffffffffffffff168152602001908152602001600020805480602002602001604051908101604052809291908181526020016000905b828210156118d757838290600052602060002090600302016040518060600160405290816000820160009054906101000a900473ffffffffffffffffffffffffffffffffffffffff1673ffffffffffffffffffffffffffffffffffffffff1673ffffffffffffffffffffffffffffffffffffffff16815260200160018201805461183c90612f50565b80601f016020809104026020016040519081016040528092919081815260200182805461186890612f50565b80156118b55780601f1061188a576101008083540402835291602001916118b5565b820191906000526020600020905b81548152906001019060200180831161189857829003601f168201915b50505050508152602001600282015481525050815260200190600101906117b3565b505050509050919050565b60016020528060005260406000206000915054906101000a900460ff1681565b6000815111611946576040517f08c379a000000000000000000000000000000000000000000000000000000000815260040161193d90612cb2565b60405180910390fd5b600460003373ffffffffffffffffffffffffffffffffffffffff1673ffffffffffffffffffffffffffffffffffffffff16815260200190815260200160002060008373ffffffffffffffffffffffffffffffffffffffff1673ffffffffffffffffffffffffffffffffffffffff16815260200190815260200160002060405180606001604052803373ffffffffffffffffffffffffffffffffffffffff16815260200183815260200142815250908060018154018082558091505060019003906000526020600020906003020160009091909190915060008201518160000160006101000a81548173ffffffffffffffffffffffffffffffffffffffff021916908373ffffffffffffffffffffffffffffffffffffffff1602179055506020820151816001019080519060200190611a7f929190611e56565b506040820151816002015550508173ffffffffffffffffffffffffffffffffffffffff163373ffffffffffffffffffffffffffffffffffffffff167f7e49d574e0305424aa957cb3f69b25f92aa58d53fdee73f05e40019210a70bce8342604051611aeb929190612ba2565b60405180910390a35050565b606060008060608060006005548710611b45576040517f08c379a0000000000000000000000000000000000000000000000000000000008152600401611b3c90612bf2565b60405180910390fd5b6001600088815260200190815260200160002060009054906101000a900460ff16611ba5576040517f08c379a0000000000000000000000000000000000000000000000000000000008152600401611b9c90612c72565b60405180910390fd5b600080600089815260200190815260200160002090508060000160018260000180549050611bd39190612e92565b81548110611c0a577f4e487b7100000000000000000000000000000000000000000000000000000000600052603260045260246000fd5b90600052602060002090600202016000018160010160009054906101000a900473ffffffffffffffffffffffffffffffffffffffff16826002015483600301846004018560050180549050858054611c6190612f50565b80601f0160208091040260200160405190810160405280929190818152602001828054611c8d90612f50565b8015611cda5780601f10611caf57610100808354040283529160200191611cda565b820191906000526020600020905b815481529060010190602001808311611cbd57829003601f168201915b5050505050955082805480602002602001604051908101604052809291908181526020016000905b82821015611dae578382906000526020600020018054611d2190612f50565b80601f0160208091040260200160405190810160405280929190818152602001828054611d4d90612f50565b8015611d9a5780601f10611d6f57610100808354040283529160200191611d9a565b820191906000526020600020905b815481529060010190602001808311611d7d57829003601f168201915b505050505081526020019060010190611d02565b505050509250818054611dc090612f50565b80601f0160208091040260200160405190810160405280929190818152602001828054611dec90612f50565b8015611e395780601f10611e0e57610100808354040283529160200191611e39565b820191906000526020600020905b815481529060010190602001808311611e1c57829003601f168201915b505050505091509650965096509650965096505091939550919395565b828054611e6290612f50565b90600052602060002090601f016020900481019282611e845760008555611ecb565b82601f10611e9d57805160ff1916838001178555611ecb565b82800160010185558215611ecb579182015b82811115611eca578251825591602001919060010190611eaf565b5b509050611ed89190611fe5565b5090565b828054828255906000526020600020908101928215611f2b579160200282015b82811115611f2a578251829080519060200190611f1a929190611e56565b5091602001919060010190611efc565b5b509050611f389190612002565b5090565b5080546000825560020290600052602060002090810190611f5d9190612026565b50565b5080546000825590600052602060002090810190611f7e9190612002565b50565b508054611f8d90612f50565b6000825580601f10611f9f5750611fbe565b601f016020900490600052602060002090810190611fbd9190611fe5565b5b50565b5080546000825560030290600052602060002090810190611fe29190612055565b50565b5b80821115611ffe576000816000905550600101611fe6565b5090565b5b8082111561202257600081816120199190611f81565b50600101612003565b5090565b5b8082111561205157600080820160006120409190611f81565b600182016000905550600201612027565b5090565b5b808211156120a757600080820160006101000a81549073ffffffffffffffffffffffffffffffffffffffff02191690556001820160006120969190611f81565b600282016000905550600301612056565b5090565b60006120be6120b984612d5e565b612d2d565b9050808382526020820190508260005b858110156120fe57813585016120e48882612185565b8452602084019350602083019250506001810190506120ce565b5050509392505050565b600061211b61211684612d8a565b612d2d565b90508281526020810184848401111561213357600080fd5b61213e848285612f0e565b509392505050565b60008135905061215581613069565b92915050565b600082601f83011261216c57600080fd5b813561217c8482602086016120ab565b91505092915050565b600082601f83011261219657600080fd5b81356121a6848260208601612108565b91505092915050565b6000813590506121be81613080565b92915050565b6000602082840312156121d657600080fd5b60006121e484828501612146565b91505092915050565b6000806040838503121561220057600080fd5b600061220e85828601612146565b925050602061221f85828601612146565b9150509250929050565b60008060006060848603121561223e57600080fd5b600061224c86828701612146565b935050602061225d86828701612146565b925050604061226e868287016121af565b9150509250925092565b6000806040838503121561228b57600080fd5b600061229985828601612146565b925050602083013567ffffffffffffffff8111156122b657600080fd5b6122c285828601612185565b9150509250929050565b6000806000606084860312156122e157600080fd5b600084013567ffffffffffffffff8111156122fb57600080fd5b61230786828701612185565b935050602084013567ffffffffffffffff81111561232457600080fd5b6123308682870161215b565b925050604084013567ffffffffffffffff81111561234d57600080fd5b61235986828701612185565b9150509250925092565b60006020828403121561237557600080fd5b6000612383848285016121af565b91505092915050565b6000806040838503121561239f57600080fd5b60006123ad858286016121af565b92505060206123be85828601612146565b9150509250929050565b600080604083850312156123db57600080fd5b60006123e9858286016121af565b925050602083013567ffffffffffffffff81111561240657600080fd5b61241285828601612185565b9150509250929050565b600061242883836125e4565b905092915050565b600061243c8383612948565b905092915050565b60006124508383612998565b905092915050565b61246181612ec6565b82525050565b61247081612ec6565b82525050565b600061248182612dea565b61248b8185612e3d565b93508360208202850161249d85612dba565b8060005b858110156124d957848403895281516124ba858261241c565b94506124c583612e16565b925060208a019950506001810190506124a1565b50829750879550505050505092915050565b60006124f682612df5565b6125008185612e4e565b93508360208202850161251285612dca565b8060005b8581101561254e578484038952815161252f8582612430565b945061253a83612e23565b925060208a01995050600181019050612516565b50829750879550505050505092915050565b600061256b82612e00565b6125758185612e5f565b93508360208202850161258785612dda565b8060005b858110156125c357848403895281516125a48582612444565b94506125af83612e30565b925060208a0199505060018101905061258b565b50829750879550505050505092915050565b6125de81612ed8565b82525050565b60006125ef82612e0b565b6125f98185612e70565b9350612609818560208601612f1d565b61261281613058565b840191505092915050565b600061262882612e0b565b6126328185612e81565b9350612642818560208601612f1d565b61264b81613058565b840191505092915050565b6000612663601783612e81565b91507f436f6d6d656e742063616e6e6f7420626520656d7074790000000000000000006000830152602082019050919050565b60006126a3601783612e81565b91507f506173746520494420646f6573206e6f742065786973740000000000000000006000830152602082019050919050565b60006126e3601e83612e81565b91507f50617374652068617320616c7265616479206265656e2064656c6574656400006000830152602082019050919050565b6000612723601783612e81565b91507f436f6e74656e742063616e6e6f7420626520656d7074790000000000000000006000830152602082019050919050565b6000612763602383612e81565b91507f596f75206861766520616c7265616479207570766f746564207468697320706160008301527f73746500000000000000000000000000000000000000000000000000000000006020830152604082019050919050565b60006127c9601683612e81565b91507f506173746520686173206265656e2064656c65746564000000000000000000006000830152602082019050919050565b6000612809602283612e81565b91507f4f6e6c7920746865206f776e65722063616e206564697420746869732070617360008301527f74650000000000000000000000000000000000000000000000000000000000006020830152604082019050919050565b600061286f601f83612e81565b91507f4d65737361676520636f6e74656e742063616e6e6f7420626520656d707479006000830152602082019050919050565b60006128af602483612e81565b91507f4f6e6c7920746865206f776e65722063616e2064656c6574652074686973207060008301527f61737465000000000000000000000000000000000000000000000000000000006020830152604082019050919050565b6000612915601a83612e81565b91507f596f752063616e6e6f7420666f6c6c6f7720796f757273656c660000000000006000830152602082019050919050565b60006060830160008301516129606000860182612458565b506020830151848203602086015261297882826125e4565b915050604083015161298d60408601826129e8565b508091505092915050565b60006060830160008301516129b06000860182612458565b50602083015184820360208601526129c882826125e4565b91505060408301516129dd60408601826129e8565b508091505092915050565b6129f181612f04565b82525050565b612a0081612f04565b82525050565b6000604082019050612a1b6000830185612467565b612a2860208301846125d5565b9392505050565b6000606082019050612a446000830186612467565b8181036020830152612a56818561261d565b9050612a6560408301846129f7565b949350505050565b6000606082019050612a826000830186612467565b612a8f60208301856129f7565b8181036040830152612aa1818461261d565b9050949350505050565b60006020820190508181036000830152612ac581846124eb565b905092915050565b60006020820190508181036000830152612ae78184612560565b905092915050565b6000602082019050612b0460008301846125d5565b92915050565b60006020820190508181036000830152612b24818461261d565b905092915050565b600060c0820190508181036000830152612b46818961261d565b9050612b556020830188612467565b612b6260408301876129f7565b8181036060830152612b748186612476565b90508181036080830152612b88818561261d565b9050612b9760a08301846129f7565b979650505050505050565b60006040820190508181036000830152612bbc818561261d565b9050612bcb60208301846129f7565b9392505050565b60006020820190508181036000830152612beb81612656565b9050919050565b60006020820190508181036000830152612c0b81612696565b9050919050565b60006020820190508181036000830152612c2b816126d6565b9050919050565b60006020820190508181036000830152612c4b81612716565b9050919050565b60006020820190508181036000830152612c6b81612756565b9050919050565b60006020820190508181036000830152612c8b816127bc565b9050919050565b60006020820190508181036000830152612cab816127fc565b9050919050565b60006020820190508181036000830152612ccb81612862565b9050919050565b60006020820190508181036000830152612ceb816128a2565b9050919050565b60006020820190508181036000830152612d0b81612908565b9050919050565b6000602082019050612d2760008301846129f7565b92915050565b6000604051905081810181811067ffffffffffffffff82111715612d5457612d53613029565b5b8060405250919050565b600067ffffffffffffffff821115612d7957612d78613029565b5b602082029050602081019050919050565b600067ffffffffffffffff821115612da557612da4613029565b5b601f19601f8301169050602081019050919050565b6000819050602082019050919050565b6000819050602082019050919050565b6000819050602082019050919050565b600081519050919050565b600081519050919050565b600081519050919050565b600081519050919050565b6000602082019050919050565b6000602082019050919050565b6000602082019050919050565b600082825260208201905092915050565b600082825260208201905092915050565b600082825260208201905092915050565b600082825260208201905092915050565b600082825260208201905092915050565b6000612e9d82612f04565b9150612ea883612f04565b925082821015612ebb57612eba612fcb565b5b828203905092915050565b6000612ed182612ee4565b9050919050565b60008115159050919050565b600073ffffffffffffffffffffffffffffffffffffffff82169050919050565b6000819050919050565b82818337600083830152505050565b60005b83811015612f3b578082015181840152602081019050612f20565b83811115612f4a576000848401525b50505050565b60006002820490506001821680612f6857607f821691505b60208210811415612f7c57612f7b612ffa565b5b50919050565b6000612f8d82612f04565b91507fffffffffffffffffffffffffffffffffffffffffffffffffffffffffffffffff821415612fc057612fbf612fcb565b5b600182019050919050565b7f4e487b7100000000000000000000000000000000000000000000000000000000600052601160045260246000fd5b7f4e487b7100000000000000000000000000000000000000000000000000000000600052602260045260246000fd5b7f4e487b7100000000000000000000000000000000000000000000000000000000600052604160045260246000fd5b6000601f19601f8301169050919050565b61307281612ec6565b811461307d57600080fd5b50565b61308981612f04565b811461309457600080fd5b5056fea2646970667358221220e088a71b1489af3c208db1e3f1a38eb1c507a7ccc138fd28d95e10e95a700da164736f6c63430008000033",
  "immutableReferences": {},
  "source": "// SPDX-License-Identifier: MIT\npragma solidity ^0.8.0;\n\ncontract Deadstreet {\n    struct Comment {\n        address commenter;\n        string content;\n        uint256 timestamp;\n    }\n\n    struct PasteVersion {\n        string content;\n        uint256 timestamp;\n    }\n\n    struct Paste {\n        PasteVersion[] versions;\n        address owner;\n        uint256 upvotes;\n        string[] tags;\n        string category;\n        Comment[] comments;\n    }\n\n    struct Follower {\n        address follower;\n        bool isFollowing;\n    }\n\n    struct Message {\n        address sender;\n        string content;\n        uint256 timestamp;\n    }\n\n    mapping(uint256 => Paste) public pastes;\n    mapping(uint256 => bool) public pasteExists;\n    mapping(uint256 => mapping(address => bool)) public hasUpvoted;\n    mapping(address => mapping(address => Follower)) public followers;\n    mapping(address => mapping(address => Message[])) public privateChats;\n    uint256 public pasteCount;\n\n    event PasteCreated(uint256 indexed pasteId, address indexed owner, string content, uint256 timestamp);\n    event PasteDeleted(uint256 indexed pasteId, address indexed owner);\n    event PasteUpvoted(uint256 indexed pasteId, address indexed upvoter);\n    event CommentAdded(uint256 indexed pasteId, address indexed commenter, string content);\n    event PasteEdited(uint256 indexed pasteId, address indexed owner, string newContent, uint256 timestamp);\n    event PasteForked(uint256 indexed originalPasteId, uint256 indexed newPasteId, address indexed owner);\n    event UserFollowed(address indexed follower, address indexed followee);\n    event MessageSent(address indexed sender, address indexed receiver, string content, uint256 timestamp);\n\n    constructor() {\n        pasteCount = 0;\n    }\n\n    function createPaste(string memory _content, string[] memory _tags, string memory _category) public {\n        require(bytes(_content).length > 0, \"Content cannot be empty\");\n        Paste storage newPaste = pastes[pasteCount];\n        newPaste.versions.push(PasteVersion({content: _content, timestamp: block.timestamp}));\n        newPaste.owner = msg.sender;\n        newPaste.upvotes = 0;\n        newPaste.tags = _tags;\n        newPaste.category = _category;\n        pasteExists[pasteCount] = true;\n        emit PasteCreated(pasteCount, msg.sender, _content, block.timestamp);\n        pasteCount++;\n    }\n\n    function editPaste(uint256 _pasteId, string memory _newContent) public {\n        require(_pasteId < pasteCount, \"Paste ID does not exist\");\n        require(pasteExists[_pasteId], \"Paste has been deleted\");\n        require(pastes[_pasteId].owner == msg.sender, \"Only the owner can edit this paste\");\n\n        Paste storage paste = pastes[_pasteId];\n        paste.versions.push(PasteVersion({content: _newContent, timestamp: block.timestamp}));\n        emit PasteEdited(_pasteId, msg.sender, _newContent, block.timestamp);\n    }\n\n    function forkPaste(uint256 _pasteId, string memory _newContent) public {\n        require(_pasteId < pasteCount, \"Paste ID does not exist\");\n        require(pasteExists[_pasteId], \"Paste has been deleted\");\n\n        Paste storage originalPaste = pastes[_pasteId];\n        createPaste(_newContent, originalPaste.tags, originalPaste.category);\n\n        emit PasteForked(_pasteId, pasteCount - 1, msg.sender);\n    }\n\n    function followUser(address _userToFollow) public {\n        require(_userToFollow != msg.sender, \"You cannot follow yourself\");\n\n        followers[msg.sender][_userToFollow].follower = msg.sender;\n        followers[msg.sender][_userToFollow].isFollowing = true;\n\n        emit UserFollowed(msg.sender, _userToFollow);\n    }\n\n    function sendMessage(address _recipient, string memory _content) public {\n        require(bytes(_content).length > 0, \"Message content cannot be empty\");\n\n        privateChats[msg.sender][_recipient].push(Message({\n            sender: msg.sender,\n            content: _content,\n            timestamp: block.timestamp\n        }));\n\n        emit MessageSent(msg.sender, _recipient, _content, block.timestamp);\n    }\n\n    function getPaste(uint256 _pasteId) public view returns (\n        string memory content, \n        address owner, \n        uint256 upvotes, \n        string[] memory tags, \n        string memory category, \n        uint256 commentCount\n    ) {\n        require(_pasteId < pasteCount, \"Paste ID does not exist\");\n        require(pasteExists[_pasteId], \"Paste has been deleted\");\n        Paste storage paste = pastes[_pasteId];\n        return (\n            paste.versions[paste.versions.length - 1].content, \n            paste.owner, \n            paste.upvotes, \n            paste.tags, \n            paste.category, \n            paste.comments.length\n        );\n    }\n\n    function deletePaste(uint256 _pasteId) public {\n        require(_pasteId < pasteCount, \"Paste ID does not exist\");\n        require(pasteExists[_pasteId], \"Paste has already been deleted\");\n        require(pastes[_pasteId].owner == msg.sender, \"Only the owner can delete this paste\");\n\n        delete pastes[_pasteId];\n        delete pasteExists[_pasteId];\n        emit PasteDeleted(_pasteId, msg.sender);\n    }\n\n    function upvotePaste(uint256 _pasteId) public {\n        require(_pasteId < pasteCount, \"Paste ID does not exist\");\n        require(pasteExists[_pasteId], \"Paste has been deleted\");\n        require(!hasUpvoted[_pasteId][msg.sender], \"You have already upvoted this paste\");\n\n        pastes[_pasteId].upvotes++;\n        hasUpvoted[_pasteId][msg.sender] = true;\n        emit PasteUpvoted(_pasteId, msg.sender);\n    }\n\n    function addComment(uint256 _pasteId, string memory _content) public {\n        require(_pasteId < pasteCount, \"Paste ID does not exist\");\n        require(pasteExists[_pasteId], \"Paste has been deleted\");\n        require(bytes(_content).length > 0, \"Comment cannot be empty\");\n\n        Comment memory newComment = Comment({\n            commenter: msg.sender,\n            content: _content,\n            timestamp: block.timestamp\n        });\n\n        pastes[_pasteId].comments.push(newComment);\n        emit CommentAdded(_pasteId, msg.sender, _content);\n    }\n\n    function getComments(uint256 _pasteId) public view returns (Comment[] memory) {\n        require(_pasteId < pasteCount, \"Paste ID does not exist\");\n        require(pasteExists[_pasteId], \"Paste has been deleted\");\n        return pastes[_pasteId].comments;\n    }\n\n    function getMessages(address _withUser) public view returns (Message[] memory) {\n        return privateChats[msg.sender][_withUser];\n    }\n}\n",
  "sourcePath": "/home/sazalo/CELOPROJECTS/deadstreet/contracts/Deadstreet.sol",
  "compiler": {
    "name": "solc",
    "version": "0.8.0+commit.c7dfd78e.Emscripten.clang"
  },
  "schemaVersion": "3.4.16",
  "updatedAt": "2024-08-24T01:48:13.962Z",
  "devdoc": {
    "kind": "dev",
    "methods": {},
    "version": 1
  },
  "userdoc": {
    "kind": "user",
    "methods": {},
    "version": 1
  }
}