{
  "contractName": "Veeko",
  "abi": [
    {
      "anonymous": false,
      "inputs": [
        {
          "indexed": true,
          "internalType": "uint256",
          "name": "id",
          "type": "uint256"
        },
        {
          "indexed": true,
          "internalType": "address",
          "name": "author",
          "type": "address"
        },
        {
          "indexed": false,
          "internalType": "string",
          "name": "title",
          "type": "string"
        }
      ],
      "name": "ArticleCreated",
      "type": "event"
    },
    {
      "anonymous": false,
      "inputs": [
        {
          "indexed": true,
          "internalType": "uint256",
          "name": "id",
          "type": "uint256"
        },
        {
          "indexed": true,
          "internalType": "address",
          "name": "voter",
          "type": "address"
        },
        {
          "indexed": false,
          "internalType": "uint256",
          "name": "newUpvoteCount",
          "type": "uint256"
        }
      ],
      "name": "ArticleUpvoted",
      "type": "event"
    },
    {
      "inputs": [
        {
          "internalType": "uint256",
          "name": "",
          "type": "uint256"
        }
      ],
      "name": "articles",
      "outputs": [
        {
          "internalType": "uint256",
          "name": "id",
          "type": "uint256"
        },
        {
          "internalType": "address",
          "name": "author",
          "type": "address"
        },
        {
          "internalType": "string",
          "name": "title",
          "type": "string"
        },
        {
          "internalType": "string",
          "name": "content",
          "type": "string"
        },
        {
          "internalType": "uint256",
          "name": "upvotes",
          "type": "uint256"
        }
      ],
      "stateMutability": "view",
      "type": "function",
      "constant": true
    },
    {
      "inputs": [
        {
          "internalType": "string",
          "name": "_title",
          "type": "string"
        },
        {
          "internalType": "string",
          "name": "_content",
          "type": "string"
        }
      ],
      "name": "createArticle",
      "outputs": [],
      "stateMutability": "nonpayable",
      "type": "function"
    },
    {
      "inputs": [
        {
          "internalType": "uint256",
          "name": "_articleId",
          "type": "uint256"
        }
      ],
      "name": "upvoteArticle",
      "outputs": [],
      "stateMutability": "nonpayable",
      "type": "function"
    },
    {
      "inputs": [
        {
          "internalType": "uint256",
          "name": "_articleId",
          "type": "uint256"
        }
      ],
      "name": "getArticle",
      "outputs": [
        {
          "internalType": "uint256",
          "name": "id",
          "type": "uint256"
        },
        {
          "internalType": "address",
          "name": "author",
          "type": "address"
        },
        {
          "internalType": "string",
          "name": "title",
          "type": "string"
        },
        {
          "internalType": "string",
          "name": "content",
          "type": "string"
        },
        {
          "internalType": "uint256",
          "name": "upvotes",
          "type": "uint256"
        }
      ],
      "stateMutability": "view",
      "type": "function",
      "constant": true
    },
    {
      "inputs": [],
      "name": "getArticleCount",
      "outputs": [
        {
          "internalType": "uint256",
          "name": "",
          "type": "uint256"
        }
      ],
      "stateMutability": "view",
      "type": "function",
      "constant": true
    }
  ],
  "bytecode": "0x608060405234801561001057600080fd5b50610d1d806100206000396000f3fe608060405234801561001057600080fd5b50600436106100575760003560e01c80638cfa22721461005c578063a217de6014610078578063bd85d86714610094578063e899d5ff146100c8578063edcfafe6146100e6575b600080fd5b6100766004803603810190610071919061084c565b61011a565b005b610092600480360381019061008d91906108b8565b610229565b005b6100ae60048036038101906100a991906108b8565b6103eb565b6040516100bf959493929190610a5b565b60405180910390f35b6100d06105bd565b6040516100dd9190610a40565b60405180910390f35b61010060048036038101906100fb91906108b8565b6105c6565b604051610111959493929190610a5b565b60405180910390f35b60008081548092919061012c90610be9565b91905055506000600160008054815260200190815260200160002090506000548160000181905550338160010160006101000a81548173ffffffffffffffffffffffffffffffffffffffff021916908373ffffffffffffffffffffffffffffffffffffffff160217905550828160020190805190602001906101af92919061072c565b50818160030190805190602001906101c892919061072c565b50600081600401819055503373ffffffffffffffffffffffffffffffffffffffff166000547fe539a333a3cfd582c41b5f4712067ec24868a7a493c0ab524d9fcfde5bb0d4108560405161021c91906109de565b60405180910390a3505050565b60008111801561023b57506000548111155b61027a576040517f08c379a000000000000000000000000000000000000000000000000000000000815260040161027190610a20565b60405180910390fd5b60006001600083815260200190815260200160002090508060050160003373ffffffffffffffffffffffffffffffffffffffff1673ffffffffffffffffffffffffffffffffffffffff16815260200190815260200160002060009054906101000a900460ff1615610320576040517f08c379a000000000000000000000000000000000000000000000000000000000815260040161031790610a00565b60405180910390fd5b80600401600081548092919061033590610be9565b919050555060018160050160003373ffffffffffffffffffffffffffffffffffffffff1673ffffffffffffffffffffffffffffffffffffffff16815260200190815260200160002060006101000a81548160ff0219169083151502179055503373ffffffffffffffffffffffffffffffffffffffff16827fade087896741c641f670c5c5f451a16aa343438a462776d16767091220565d5c83600401546040516103df9190610a40565b60405180910390a35050565b6000806060806000808611801561040457506000548611155b610443576040517f08c379a000000000000000000000000000000000000000000000000000000000815260040161043a90610a20565b60405180910390fd5b600060016000888152602001908152602001600020905080600001548160010160009054906101000a900473ffffffffffffffffffffffffffffffffffffffff168260020183600301846004015482805461049d90610bb7565b80601f01602080910402602001604051908101604052809291908181526020018280546104c990610bb7565b80156105165780601f106104eb57610100808354040283529160200191610516565b820191906000526020600020905b8154815290600101906020018083116104f957829003601f168201915b5050505050925081805461052990610bb7565b80601f016020809104026020016040519081016040528092919081815260200182805461055590610bb7565b80156105a25780601f10610577576101008083540402835291602001916105a2565b820191906000526020600020905b81548152906001019060200180831161058557829003601f168201915b50505050509150955095509550955095505091939590929450565b60008054905090565b60016020528060005260406000206000915090508060000154908060010160009054906101000a900473ffffffffffffffffffffffffffffffffffffffff169080600201805461061590610bb7565b80601f016020809104026020016040519081016040528092919081815260200182805461064190610bb7565b801561068e5780601f106106635761010080835404028352916020019161068e565b820191906000526020600020905b81548152906001019060200180831161067157829003601f168201915b5050505050908060030180546106a390610bb7565b80601f01602080910402602001604051908101604052809291908181526020018280546106cf90610bb7565b801561071c5780601f106106f15761010080835404028352916020019161071c565b820191906000526020600020905b8154815290600101906020018083116106ff57829003601f168201915b5050505050908060040154905085565b82805461073890610bb7565b90600052602060002090601f01602090048101928261075a57600085556107a1565b82601f1061077357805160ff19168380011785556107a1565b828001600101855582156107a1579182015b828111156107a0578251825591602001919060010190610785565b5b5090506107ae91906107b2565b5090565b5b808211156107cb5760008160009055506001016107b3565b5090565b60006107e26107dd84610aed565b610abc565b9050828152602081018484840111156107fa57600080fd5b610805848285610b75565b509392505050565b600082601f83011261081e57600080fd5b813561082e8482602086016107cf565b91505092915050565b60008135905061084681610cd0565b92915050565b6000806040838503121561085f57600080fd5b600083013567ffffffffffffffff81111561087957600080fd5b6108858582860161080d565b925050602083013567ffffffffffffffff8111156108a257600080fd5b6108ae8582860161080d565b9150509250929050565b6000602082840312156108ca57600080fd5b60006108d884828501610837565b91505092915050565b6108ea81610b39565b82525050565b60006108fb82610b1d565b6109058185610b28565b9350610915818560208601610b84565b61091e81610cbf565b840191505092915050565b6000610936602583610b28565b91507f596f75206861766520616c7265616479207570766f746564207468697320617260008301527f7469636c650000000000000000000000000000000000000000000000000000006020830152604082019050919050565b600061099c601283610b28565b91507f496e76616c69642061727469636c6520494400000000000000000000000000006000830152602082019050919050565b6109d881610b6b565b82525050565b600060208201905081810360008301526109f881846108f0565b905092915050565b60006020820190508181036000830152610a1981610929565b9050919050565b60006020820190508181036000830152610a398161098f565b9050919050565b6000602082019050610a5560008301846109cf565b92915050565b600060a082019050610a7060008301886109cf565b610a7d60208301876108e1565b8181036040830152610a8f81866108f0565b90508181036060830152610aa381856108f0565b9050610ab260808301846109cf565b9695505050505050565b6000604051905081810181811067ffffffffffffffff82111715610ae357610ae2610c90565b5b8060405250919050565b600067ffffffffffffffff821115610b0857610b07610c90565b5b601f19601f8301169050602081019050919050565b600081519050919050565b600082825260208201905092915050565b6000610b4482610b4b565b9050919050565b600073ffffffffffffffffffffffffffffffffffffffff82169050919050565b6000819050919050565b82818337600083830152505050565b60005b83811015610ba2578082015181840152602081019050610b87565b83811115610bb1576000848401525b50505050565b60006002820490506001821680610bcf57607f821691505b60208210811415610be357610be2610c61565b5b50919050565b6000610bf482610b6b565b91507fffffffffffffffffffffffffffffffffffffffffffffffffffffffffffffffff821415610c2757610c26610c32565b5b600182019050919050565b7f4e487b7100000000000000000000000000000000000000000000000000000000600052601160045260246000fd5b7f4e487b7100000000000000000000000000000000000000000000000000000000600052602260045260246000fd5b7f4e487b7100000000000000000000000000000000000000000000000000000000600052604160045260246000fd5b6000601f19601f8301169050919050565b610cd981610b6b565b8114610ce457600080fd5b5056fea2646970667358221220b81faef1fb8a713923ce8c99956eea348f9252f9a58a9d126820173da5e5077264736f6c63430008000033",
  "immutableReferences": {},
  "source": "// SPDX-License-Identifier: MIT\npragma solidity ^0.8.0;\n\ncontract Veeko {\n    struct Article {\n        uint256 id;\n        address author;\n        string title;\n        string content;\n        uint256 upvotes;\n        mapping(address => bool) hasUpvoted;\n    }\n\n    uint256 private articleCounter;\n    mapping(uint256 => Article) public articles;\n\n    event ArticleCreated(uint256 indexed id, address indexed author, string title);\n    event ArticleUpvoted(uint256 indexed id, address indexed voter, uint256 newUpvoteCount);\n\n    function createArticle(string memory _title, string memory _content) public {\n        articleCounter++;\n        Article storage newArticle = articles[articleCounter];\n        newArticle.id = articleCounter;\n        newArticle.author = msg.sender;\n        newArticle.title = _title;\n        newArticle.content = _content;\n        newArticle.upvotes = 0;\n\n        emit ArticleCreated(articleCounter, msg.sender, _title);\n    }\n\n    function upvoteArticle(uint256 _articleId) public {\n        require(_articleId > 0 && _articleId <= articleCounter, \"Invalid article ID\");\n        Article storage article = articles[_articleId];\n        require(!article.hasUpvoted[msg.sender], \"You have already upvoted this article\");\n\n        article.upvotes++;\n        article.hasUpvoted[msg.sender] = true;\n\n        emit ArticleUpvoted(_articleId, msg.sender, article.upvotes);\n    }\n\n    function getArticle(uint256 _articleId) public view returns (\n        uint256 id,\n        address author,\n        string memory title,\n        string memory content,\n        uint256 upvotes\n    ) {\n        require(_articleId > 0 && _articleId <= articleCounter, \"Invalid article ID\");\n        Article storage article = articles[_articleId];\n        return (article.id, article.author, article.title, article.content, article.upvotes);\n    }\n\n    function getArticleCount() public view returns (uint256) {\n        return articleCounter;\n    }\n}",
  "sourcePath": "/home/sazalo/CELOPROJECTS/deadstreet/contracts/Veeko.sol",
  "compiler": {
    "name": "solc",
    "version": "0.8.0+commit.c7dfd78e.Emscripten.clang"
  },
  "schemaVersion": "3.4.16",
  "updatedAt": "2024-09-21T11:16:54.178Z",
  "networkType": "ethereum",
  "devdoc": {
    "kind": "dev",
    "methods": {},
    "version": 1
  },
  "userdoc": {
    "kind": "user",
    "methods": {},
    "version": 1
  }
}