{
  "contractName": "Insurance",
  "abi": [
    {
      "inputs": [
        {
          "internalType": "address",
          "name": "_cUSDToken",
          "type": "address"
        },
        {
          "internalType": "uint256",
          "name": "_monthlyPremium",
          "type": "uint256"
        }
      ],
      "stateMutability": "nonpayable",
      "type": "constructor"
    },
    {
      "anonymous": false,
      "inputs": [
        {
          "indexed": true,
          "internalType": "address",
          "name": "policyHolder",
          "type": "address"
        },
        {
          "indexed": false,
          "internalType": "uint256",
          "name": "amount",
          "type": "uint256"
        }
      ],
      "name": "ClaimPaid",
      "type": "event"
    },
    {
      "anonymous": false,
      "inputs": [
        {
          "indexed": true,
          "internalType": "address",
          "name": "policyHolder",
          "type": "address"
        }
      ],
      "name": "PolicyPurchased",
      "type": "event"
    },
    {
      "anonymous": false,
      "inputs": [
        {
          "indexed": true,
          "internalType": "address",
          "name": "policyHolder",
          "type": "address"
        },
        {
          "indexed": false,
          "internalType": "uint256",
          "name": "penalty",
          "type": "uint256"
        }
      ],
      "name": "PolicyTerminated",
      "type": "event"
    },
    {
      "inputs": [],
      "name": "cUSDToken",
      "outputs": [
        {
          "internalType": "contract IERC20",
          "name": "",
          "type": "address"
        }
      ],
      "stateMutability": "view",
      "type": "function",
      "constant": true
    },
    {
      "inputs": [],
      "name": "claimPercentage",
      "outputs": [
        {
          "internalType": "uint256",
          "name": "",
          "type": "uint256"
        }
      ],
      "stateMutability": "view",
      "type": "function",
      "constant": true
    },
    {
      "inputs": [],
      "name": "monthlyPremium",
      "outputs": [
        {
          "internalType": "uint256",
          "name": "",
          "type": "uint256"
        }
      ],
      "stateMutability": "view",
      "type": "function",
      "constant": true
    },
    {
      "inputs": [],
      "name": "owner",
      "outputs": [
        {
          "internalType": "address",
          "name": "",
          "type": "address"
        }
      ],
      "stateMutability": "view",
      "type": "function",
      "constant": true
    },
    {
      "inputs": [],
      "name": "penaltyPercentage",
      "outputs": [
        {
          "internalType": "uint256",
          "name": "",
          "type": "uint256"
        }
      ],
      "stateMutability": "view",
      "type": "function",
      "constant": true
    },
    {
      "inputs": [
        {
          "internalType": "address",
          "name": "",
          "type": "address"
        }
      ],
      "name": "policies",
      "outputs": [
        {
          "internalType": "bool",
          "name": "active",
          "type": "bool"
        },
        {
          "internalType": "uint256",
          "name": "lastPayment",
          "type": "uint256"
        },
        {
          "internalType": "uint256",
          "name": "totalPaid",
          "type": "uint256"
        }
      ],
      "stateMutability": "view",
      "type": "function",
      "constant": true
    },
    {
      "inputs": [],
      "name": "purchasePolicy",
      "outputs": [],
      "stateMutability": "nonpayable",
      "type": "function"
    },
    {
      "inputs": [],
      "name": "payMonthlyPremium",
      "outputs": [],
      "stateMutability": "nonpayable",
      "type": "function"
    },
    {
      "inputs": [],
      "name": "terminatePolicy",
      "outputs": [],
      "stateMutability": "nonpayable",
      "type": "function"
    },
    {
      "inputs": [],
      "name": "claimInsurance",
      "outputs": [],
      "stateMutability": "nonpayable",
      "type": "function"
    },
    {
      "inputs": [
        {
          "internalType": "uint256",
          "name": "amount",
          "type": "uint256"
        }
      ],
      "name": "withdrawFunds",
      "outputs": [],
      "stateMutability": "nonpayable",
      "type": "function"
    }
  ],
  "bytecode": "0x60806040526014600355604b6004553480156200001b57600080fd5b5060405162001a0938038062001a098339818101604052810190620000419190620000ff565b336000806101000a81548173ffffffffffffffffffffffffffffffffffffffff021916908373ffffffffffffffffffffffffffffffffffffffff16021790555081600160006101000a81548173ffffffffffffffffffffffffffffffffffffffff021916908373ffffffffffffffffffffffffffffffffffffffff160217905550806002819055505050620001b2565b600081519050620000e2816200017e565b92915050565b600081519050620000f98162000198565b92915050565b600080604083850312156200011357600080fd5b60006200012385828601620000d1565b92505060206200013685828601620000e8565b9150509250929050565b60006200014d8262000154565b9050919050565b600073ffffffffffffffffffffffffffffffffffffffff82169050919050565b6000819050919050565b620001898162000140565b81146200019557600080fd5b50565b620001a38162000174565b8114620001af57600080fd5b50565b61184780620001c26000396000f3fe608060405234801561001057600080fd5b50600436106100a95760003560e01c80633fa25c9c116100715780633fa25c9c146101425780637a895f5d1461014c5780638da5cb5b1461016a578063a75ac60814610188578063d48d622914610192578063e540cae01461019c576100a9565b80630951f7be146100ae5780630ea86ad8146100b8578063155dd5ee146100d657806315908d51146100f257806320e9869814610110575b600080fd5b6100b66101ba565b005b6100c0610417565b6040516100cd91906114a6565b60405180910390f35b6100f060048036038101906100eb9190611140565b61043d565b005b6100fa6106c9565b60405161010791906115c1565b60405180910390f35b61012a600480360381019061012591906110ee565b6106cf565b6040516101399392919061146f565b60405180910390f35b61014a610706565b005b61015461092b565b60405161016191906115c1565b60405180910390f35b610172610931565b60405161017f91906113f4565b60405180910390f35b610190610955565b005b61019a610ccb565b005b6101a4611094565b6040516101b191906115c1565b60405180910390f35b600560003373ffffffffffffffffffffffffffffffffffffffff1673ffffffffffffffffffffffffffffffffffffffff16815260200190815260200160002060000160009054906101000a900460ff161561024a576040517f08c379a000000000000000000000000000000000000000000000000000000000815260040161024190611581565b60405180910390fd5b600160009054906101000a900473ffffffffffffffffffffffffffffffffffffffff1673ffffffffffffffffffffffffffffffffffffffff166323b872dd33306002546040518463ffffffff1660e01b81526004016102ab9392919061140f565b602060405180830381600087803b1580156102c557600080fd5b505af11580156102d9573d6000803e3d6000fd5b505050506040513d601f19601f820116820180604052508101906102fd9190611117565b61033c576040517f08c379a0000000000000000000000000000000000000000000000000000000008152600401610333906114e1565b60405180910390fd5b6040518060600160405280600115158152602001428152602001600254815250600560003373ffffffffffffffffffffffffffffffffffffffff1673ffffffffffffffffffffffffffffffffffffffff16815260200190815260200160002060008201518160000160006101000a81548160ff02191690831515021790555060208201518160010155604082015181600201559050503373ffffffffffffffffffffffffffffffffffffffff167f8ad24aacaef6be4fc6b47a84fa6bff9dfa020b118ed789def08941e4da1f314960405160405180910390a2565b600160009054906101000a900473ffffffffffffffffffffffffffffffffffffffff1681565b60008054906101000a900473ffffffffffffffffffffffffffffffffffffffff1673ffffffffffffffffffffffffffffffffffffffff163373ffffffffffffffffffffffffffffffffffffffff16146104cb576040517f08c379a00000000000000000000000000000000000000000000000000000000081526004016104c2906114c1565b60405180910390fd5b80600160009054906101000a900473ffffffffffffffffffffffffffffffffffffffff1673ffffffffffffffffffffffffffffffffffffffff166370a08231306040518263ffffffff1660e01b815260040161052791906113f4565b60206040518083038186803b15801561053f57600080fd5b505afa158015610553573d6000803e3d6000fd5b505050506040513d601f19601f820116820180604052508101906105779190611169565b10156105b8576040517f08c379a00000000000000000000000000000000000000000000000000000000081526004016105af90611501565b60405180910390fd5b600160009054906101000a900473ffffffffffffffffffffffffffffffffffffffff1673ffffffffffffffffffffffffffffffffffffffff1663a9059cbb60008054906101000a900473ffffffffffffffffffffffffffffffffffffffff16836040518363ffffffff1660e01b8152600401610635929190611446565b602060405180830381600087803b15801561064f57600080fd5b505af1158015610663573d6000803e3d6000fd5b505050506040513d601f19601f820116820180604052508101906106879190611117565b6106c6576040517f08c379a00000000000000000000000000000000000000000000000000000000081526004016106bd906115a1565b60405180910390fd5b50565b60035481565b60056020528060005260406000206000915090508060000160009054906101000a900460ff16908060010154908060020154905083565b600560003373ffffffffffffffffffffffffffffffffffffffff1673ffffffffffffffffffffffffffffffffffffffff16815260200190815260200160002060000160009054906101000a900460ff16610795576040517f08c379a000000000000000000000000000000000000000000000000000000000815260040161078c90611541565b60405180910390fd5b600160009054906101000a900473ffffffffffffffffffffffffffffffffffffffff1673ffffffffffffffffffffffffffffffffffffffff166323b872dd33306002546040518463ffffffff1660e01b81526004016107f69392919061140f565b602060405180830381600087803b15801561081057600080fd5b505af1158015610824573d6000803e3d6000fd5b505050506040513d601f19601f820116820180604052508101906108489190611117565b610887576040517f08c379a000000000000000000000000000000000000000000000000000000000815260040161087e906114e1565b60405180910390fd5b42600560003373ffffffffffffffffffffffffffffffffffffffff1673ffffffffffffffffffffffffffffffffffffffff16815260200190815260200160002060010181905550600254600560003373ffffffffffffffffffffffffffffffffffffffff1673ffffffffffffffffffffffffffffffffffffffff168152602001908152602001600020600201600082825461092291906115ed565b92505081905550565b60045481565b60008054906101000a900473ffffffffffffffffffffffffffffffffffffffff1681565b600560003373ffffffffffffffffffffffffffffffffffffffff1673ffffffffffffffffffffffffffffffffffffffff16815260200190815260200160002060000160009054906101000a900460ff166109e4576040517f08c379a00000000000000000000000000000000000000000000000000000000081526004016109db90611541565b60405180910390fd5b60006064600454600560003373ffffffffffffffffffffffffffffffffffffffff1673ffffffffffffffffffffffffffffffffffffffff16815260200190815260200160002060020154610a389190611674565b610a429190611643565b905080600160009054906101000a900473ffffffffffffffffffffffffffffffffffffffff1673ffffffffffffffffffffffffffffffffffffffff166370a08231306040518263ffffffff1660e01b8152600401610aa091906113f4565b60206040518083038186803b158015610ab857600080fd5b505afa158015610acc573d6000803e3d6000fd5b505050506040513d601f19601f82011682018060405250810190610af09190611169565b1015610b31576040517f08c379a0000000000000000000000000000000000000000000000000000000008152600401610b2890611501565b60405180910390fd5b600160009054906101000a900473ffffffffffffffffffffffffffffffffffffffff1673ffffffffffffffffffffffffffffffffffffffff1663a9059cbb33836040518363ffffffff1660e01b8152600401610b8e929190611446565b602060405180830381600087803b158015610ba857600080fd5b505af1158015610bbc573d6000803e3d6000fd5b505050506040513d601f19601f82011682018060405250810190610be09190611117565b610c1f576040517f08c379a0000000000000000000000000000000000000000000000000000000008152600401610c1690611561565b60405180910390fd5b6000600560003373ffffffffffffffffffffffffffffffffffffffff1673ffffffffffffffffffffffffffffffffffffffff16815260200190815260200160002060000160006101000a81548160ff0219169083151502179055503373ffffffffffffffffffffffffffffffffffffffff167ff42cf8c29487b42c009006cba2a2a0ca0388229f3183e6e957e0a0b163585cb482604051610cc091906115c1565b60405180910390a250565b600560003373ffffffffffffffffffffffffffffffffffffffff1673ffffffffffffffffffffffffffffffffffffffff16815260200190815260200160002060000160009054906101000a900460ff16610d5a576040517f08c379a0000000000000000000000000000000000000000000000000000000008152600401610d5190611541565b60405180910390fd5b60006064600354600560003373ffffffffffffffffffffffffffffffffffffffff1673ffffffffffffffffffffffffffffffffffffffff16815260200190815260200160002060020154610dae9190611674565b610db89190611643565b9050600081600560003373ffffffffffffffffffffffffffffffffffffffff1673ffffffffffffffffffffffffffffffffffffffff16815260200190815260200160002060020154610e0a91906116ce565b905080600160009054906101000a900473ffffffffffffffffffffffffffffffffffffffff1673ffffffffffffffffffffffffffffffffffffffff166370a08231306040518263ffffffff1660e01b8152600401610e6891906113f4565b60206040518083038186803b158015610e8057600080fd5b505afa158015610e94573d6000803e3d6000fd5b505050506040513d601f19601f82011682018060405250810190610eb89190611169565b1015610ef9576040517f08c379a0000000000000000000000000000000000000000000000000000000008152600401610ef090611501565b60405180910390fd5b600160009054906101000a900473ffffffffffffffffffffffffffffffffffffffff1673ffffffffffffffffffffffffffffffffffffffff1663a9059cbb33836040518363ffffffff1660e01b8152600401610f56929190611446565b602060405180830381600087803b158015610f7057600080fd5b505af1158015610f84573d6000803e3d6000fd5b505050506040513d601f19601f82011682018060405250810190610fa89190611117565b610fe7576040517f08c379a0000000000000000000000000000000000000000000000000000000008152600401610fde90611521565b60405180910390fd5b6000600560003373ffffffffffffffffffffffffffffffffffffffff1673ffffffffffffffffffffffffffffffffffffffff16815260200190815260200160002060000160006101000a81548160ff0219169083151502179055503373ffffffffffffffffffffffffffffffffffffffff167f8c2787f23c7e82ba476c4712ecbc227be4235d816a38edc1abd7a3d713e5c99e8360405161108891906115c1565b60405180910390a25050565b60025481565b6000813590506110a9816117cc565b92915050565b6000815190506110be816117e3565b92915050565b6000813590506110d3816117fa565b92915050565b6000815190506110e8816117fa565b92915050565b60006020828403121561110057600080fd5b600061110e8482850161109a565b91505092915050565b60006020828403121561112957600080fd5b6000611137848285016110af565b91505092915050565b60006020828403121561115257600080fd5b6000611160848285016110c4565b91505092915050565b60006020828403121561117b57600080fd5b6000611189848285016110d9565b91505092915050565b61119b81611702565b82525050565b6111aa81611714565b82525050565b6111b98161174a565b82525050565b60006111cc6021836115dc565b91507f4f6e6c79206f776e65722063616e2063616c6c20746869732066756e6374696f60008301527f6e000000000000000000000000000000000000000000000000000000000000006020830152604082019050919050565b6000611232600e836115dc565b91507f5061796d656e74206661696c65640000000000000000000000000000000000006000830152602082019050919050565b6000611272601e836115dc565b91507f496e73756666696369656e742066756e647320696e20636f6e747261637400006000830152602082019050919050565b60006112b2600d836115dc565b91507f526566756e64206661696c6564000000000000000000000000000000000000006000830152602082019050919050565b60006112f26016836115dc565b91507f4e6f2061637469766520706f6c69637920666f756e64000000000000000000006000830152602082019050919050565b60006113326014836115dc565b91507f436c61696d207061796d656e74206661696c65640000000000000000000000006000830152602082019050919050565b60006113726015836115dc565b91507f506f6c69637920616c72656164792065786973747300000000000000000000006000830152602082019050919050565b60006113b26011836115dc565b91507f5769746864726177616c206661696c65640000000000000000000000000000006000830152602082019050919050565b6113ee81611740565b82525050565b60006020820190506114096000830184611192565b92915050565b60006060820190506114246000830186611192565b6114316020830185611192565b61143e60408301846113e5565b949350505050565b600060408201905061145b6000830185611192565b61146860208301846113e5565b9392505050565b600060608201905061148460008301866111a1565b61149160208301856113e5565b61149e60408301846113e5565b949350505050565b60006020820190506114bb60008301846111b0565b92915050565b600060208201905081810360008301526114da816111bf565b9050919050565b600060208201905081810360008301526114fa81611225565b9050919050565b6000602082019050818103600083015261151a81611265565b9050919050565b6000602082019050818103600083015261153a816112a5565b9050919050565b6000602082019050818103600083015261155a816112e5565b9050919050565b6000602082019050818103600083015261157a81611325565b9050919050565b6000602082019050818103600083015261159a81611365565b9050919050565b600060208201905081810360008301526115ba816113a5565b9050919050565b60006020820190506115d660008301846113e5565b92915050565b600082825260208201905092915050565b60006115f882611740565b915061160383611740565b9250827fffffffffffffffffffffffffffffffffffffffffffffffffffffffffffffffff038211156116385761163761176e565b5b828201905092915050565b600061164e82611740565b915061165983611740565b9250826116695761166861179d565b5b828204905092915050565b600061167f82611740565b915061168a83611740565b9250817fffffffffffffffffffffffffffffffffffffffffffffffffffffffffffffffff04831182151516156116c3576116c261176e565b5b828202905092915050565b60006116d982611740565b91506116e483611740565b9250828210156116f7576116f661176e565b5b828203905092915050565b600061170d82611720565b9050919050565b60008115159050919050565b600073ffffffffffffffffffffffffffffffffffffffff82169050919050565b6000819050919050565b60006117558261175c565b9050919050565b600061176782611720565b9050919050565b7f4e487b7100000000000000000000000000000000000000000000000000000000600052601160045260246000fd5b7f4e487b7100000000000000000000000000000000000000000000000000000000600052601260045260246000fd5b6117d581611702565b81146117e057600080fd5b50565b6117ec81611714565b81146117f757600080fd5b50565b61180381611740565b811461180e57600080fd5b5056fea2646970667358221220cf9057d0ce3f5637f55a767fb6ff8cf5ef22712049f9fd6d255e199035a8427d64736f6c63430008000033",
  "immutableReferences": {},
  "source": "// SPDX-License-Identifier: MIT\npragma solidity ^0.8.0;\n\ninterface IERC20 {\n    function transfer(address recipient, uint256 amount) external returns (bool);\n    function transferFrom(address sender, address recipient, uint256 amount) external returns (bool);\n    function balanceOf(address account) external view returns (uint256);\n}\n\ncontract Insurance {\n    address public owner;\n    IERC20 public cUSDToken;\n    uint256 public monthlyPremium;\n    uint256 public penaltyPercentage = 20;\n    uint256 public claimPercentage = 75;\n\n    struct Policy {\n        bool active;\n        uint256 lastPayment;\n        uint256 totalPaid;\n    }\n\n    mapping(address => Policy) public policies;\n\n    event PolicyPurchased(address indexed policyHolder);\n    event PolicyTerminated(address indexed policyHolder, uint256 penalty);\n    event ClaimPaid(address indexed policyHolder, uint256 amount);\n\n    constructor(address _cUSDToken, uint256 _monthlyPremium) {\n        owner = msg.sender;\n        cUSDToken = IERC20(_cUSDToken);\n        monthlyPremium = _monthlyPremium;\n    }\n\n    modifier onlyOwner() {\n        require(msg.sender == owner, \"Only owner can call this function\");\n        _;\n    }\n\n    function purchasePolicy() external {\n        require(!policies[msg.sender].active, \"Policy already exists\");\n        require(cUSDToken.transferFrom(msg.sender, address(this), monthlyPremium), \"Payment failed\");\n        policies[msg.sender] = Policy(true, block.timestamp, monthlyPremium);\n        emit PolicyPurchased(msg.sender);\n    }\n\n    function payMonthlyPremium() external {\n        require(policies[msg.sender].active, \"No active policy found\");\n        require(cUSDToken.transferFrom(msg.sender, address(this), monthlyPremium), \"Payment failed\");\n        policies[msg.sender].lastPayment = block.timestamp;\n        policies[msg.sender].totalPaid += monthlyPremium;\n    }\n\n    function terminatePolicy() external {\n        require(policies[msg.sender].active, \"No active policy found\");\n        uint256 penalty = (policies[msg.sender].totalPaid * penaltyPercentage) / 100;\n        uint256 refund = policies[msg.sender].totalPaid - penalty;\n        require(cUSDToken.balanceOf(address(this)) >= refund, \"Insufficient funds in contract\");\n        require(cUSDToken.transfer(msg.sender, refund), \"Refund failed\");\n        policies[msg.sender].active = false;\n        emit PolicyTerminated(msg.sender, penalty);\n    }\n\n    function claimInsurance() external {\n        require(policies[msg.sender].active, \"No active policy found\");\n        uint256 claimAmount = (policies[msg.sender].totalPaid * claimPercentage) / 100;\n        require(cUSDToken.balanceOf(address(this)) >= claimAmount, \"Insufficient funds in contract\");\n        require(cUSDToken.transfer(msg.sender, claimAmount), \"Claim payment failed\");\n        policies[msg.sender].active = false;\n        emit ClaimPaid(msg.sender, claimAmount);\n    }\n\n    function withdrawFunds(uint256 amount) external onlyOwner {\n        require(cUSDToken.balanceOf(address(this)) >= amount, \"Insufficient funds in contract\");\n        require(cUSDToken.transfer(owner, amount), \"Withdrawal failed\");\n    }\n}",
  "sourcePath": "/home/sazalo/CELOPROJECTS/insurance/contracts/Insurance.sol",
  "compiler": {
    "name": "solc",
    "version": "0.8.0+commit.c7dfd78e.Emscripten.clang"
  },
  "schemaVersion": "3.4.16",
  "updatedAt": "2024-08-08T17:44:32.464Z",
  "networkType": "ethereum",
  "devdoc": {
    "kind": "dev",
    "methods": {},
    "version": 1
  },
  "userdoc": {
    "kind": "user",
    "methods": {},
    "version": 1
  }
}